:020000040800F2
:100000007805002045010008C90C0008A10C000873
:10001000C50C0008270B0008151800080000000098
:10002000000000000000000000000000610F000858
:100030002B0B000800000000490E00087510000896
:100040005F0100085F0100085F0100085F01000810
:100050005F0100085F0100085F0100085F01000800
:100060005F0100085F0100085F0100085F010008F0
:100070005F0100085F0100085F0100085F010008E0
:100080005F0100085F0100085F0100085F010008D0
:100090005F0100085F0100085F0100085F010008C0
:1000A0005F0100085F0100085F0100085F010008B0
:1000B0005F0100085F0100085F0100085F010008A0
:1000C0005F0100085F0100085F0100085F01000890
:1000D0005F0100083D1600085F0100085F0100088D
:1000E0005F0100085F0100085F0100085F01000870
:1000F0005F0100085F0100085F0100085F01000860
:100100005F0100085F0100085F0100085F0100084F
:100110005F0100085F0100085F0100085F0100083F
:100120005F0100085F0100085F0100085F0100082F
:10013000DFF80CD000F0DEF9004800477119000824
:10014000780500200648804706480047FEE7FEE79E
:10015000FEE7FEE7FEE7FEE7FEE7FEE7FEE7FEE777
:10016000791000083101000870B50F4D00B92868FA
:10017000002412E00A4602E09E4203D0521C13788B
:10018000002BF9D1DAB2224305D02BB124B10021E2
:1001900000F8011B04E00446401C0678002EE9D15B
:1001A0002860204670BD00004400002070B506465F
:1001B00001F032FB046805460A220021304600F0B7
:1001C0007FF82C6070BD70B5C1F30A5201F0004594
:1001D0000024C1F3130140F2FF3341F480119A422D
:1001E00001DA002070BD40F233439A42A2F233425A
:1001F00003DC524200F006F800E090402C43F1D0BE
:10020000404270BD202A04DB203A21FA02F000218E
:10021000704721FA02F3D040C2F120029140084316
:10022000194670470FB4002300B589B00CA900919E
:100230000B996FF00042CB601E4B06931E4B079349
:100240000423CDE901321D4A089202466B46002084
:1002500000F014FA09B05DF814FB70B586B00646DC
:100260004FF0FF300091CDE90101002015460C460A
:1002700004903246694604A8FFF7D4FF024604986A
:10028000211825B108B1084600E0204628600498EE
:1002900000280DD0002A02DD0098884208D0081BF3
:1002A0000094CDE901043246694604A8FFF7BAFF7D
:1002B00006B070BDB5080008D30800084105000865
:1002C0002DE9F04791460F4680460446002614F873
:1002D000015B2DB100F030F90068405DC007F6D138
:1002E0002B2D02D02D2D18D0641E4A4639462046AB
:1002F00000F000FB27B13968A14201D1C7F80080A6
:1003000071054FF002040BD54042002803DD01F0D7
:1003100083FA0460A007BDE8F08746F48066E4E74E
:100320000028F8DA01F078FA04606FF00040F2E794
:100330002DE9FE4F81EA030404F0004421F000415E
:1003400000944FF0000B23F0004350EA01045ED00C
:1003500052EA03045BD0C3F30A54C1F30A552C4498
:10036000A4F2F3340194A0FB0254C1F3130141F44D
:100370008011C3F3130343F4801301FB024400FB19
:10038000034E840A970A44EA815447EA8357A4FB40
:10039000076802958D0A05FB07854FEA932C04FB3D
:1003A0000C542705029D4FEA065847EA1637B5EB6D
:1003B00008056EEB070C870E920E47EA811742EA9A
:1003C0008312A7FB0201B6EB0B0164EB00042B0DBB
:1003D00043EA0C335E1844EB1C50DA465146E7FB07
:1003E0000201C5F313044FEA0B3343EA14534FEAF7
:1003F0000432019C43EA0603A4F10C040294009C1D
:10040000CDE900B400F0D4FA03B0BDE8F08F0020CD
:100410000146F9E72DE9F04D81EA030404F0004BB1
:1004200021F0004514464FF0000A23F0004150EA45
:10043000050220D054EA01021DD0C5F30A57024636
:10044000C5F31303C1F31300C1F30A5640F480153A
:1004500043F48013A7EB0608101BD64608F2FD38BC
:1004600073EB050002D308F1010801E092185B412B
:10047000B8F1000F03DA00200146BDE8F08D00203E
:100480004FF48011064684460EE0171B73EB0507F8
:1004900005D3121B63EB050306434CEA010C490824
:1004A0004FEA300092185B4150EA0107EDD152EA61
:1004B000030012D082EA040083EA0501084305D054
:1004C000101BAB4106D20122002306E000224FF0B0
:1004D000004302E06FF0010253101AEB06004CEBF0
:1004E000085110EB0A0041EB0B01BDE8F04D00F0A4
:1004F00050BA0000064C074D06E0E06840F00103EA
:1005000094E8070098471034AC42F6D3FFF714FE86
:10051000B41B0008D41B0008202A04DB203A00FA90
:1005200002F1002070479140C2F1200320FA03F34A
:10053000194390407047000000487047B01B000806
:1005400010B50446FFF7F8FF0068005D00F00100F9
:1005500010BD00002DE9FF4F087883B09946FF28B1
:1005600005D0491C2D2804D00024002008E00020DC
:100570000BE00124F9E700EB800003EB4000491C8D
:100580000B78FF2BF7D104B140420023029314787B
:1005900019461D462D2C01D02B2C04D1521C2D2C7C
:1005A00013D000240294AA461478FF2C0FD00A25F9
:1005B000A3FB057801FB05814FF0000C03FB0C1138
:1005C000521CE3194AEB0101EEE70124EAE78144FA
:1005D00053EA010002D019F5C87F06DA039800211A
:1005E000C0E9001107B0BDE8F08F0025AE4E2F46E0
:1005F000DFF8B882184600F037FACDE90001B9F10A
:10060000000002DAC9F1000400E004460023A74A12
:100610001AEB030B42EB045A12E0E00707D02A461C
:10062000334638464146FFF783FE074688462A464A
:10063000334610461946FFF77BFE05460E4664100A
:10064000002CEAD1DDE90001B9F1000F5A4653460A
:1006500006DAFFF7DFFE3A464346FFF7DBFE05E02A
:10066000FFF766FE3A464346FFF762FE029A0AB17A
:1006700081F00041039AC2E90001B3E72DE9FF4F81
:100680001F468DB0D7E901464FF0FF382E20454672
:100690004FF000090B90B9696D1C0E988847396AB4
:1006A000824688470028F6D1BAF1FF3F0AD024F4E9
:1006B000D064002E11DDBAF12B0F08D0BAF12D0F46
:1006C0000BD102E0404611B08DE744F48064B96973
:1006D0006D1C0E9888478246761E6946600501D5D6
:1006E0002D2000E02B208DF8000001F1010B0DF111
:1006F000200809E0B9696D1C0E98884782460F985A
:1007000044F40074761E0560002E02DDBAF1300F4D
:10071000F0D00B998A453ED144F0800406E00F9951
:10072000681CA9F1010944F400740860B9696D1CE2
:10073000761E0E98884782463028F0D02BE00B9921
:100740008A4505D1200603D444F08004761E18E0C3
:10075000504601F081F808B30DF11301761E44F400
:1007600000748B4508D2AAF130000BF8010B20066B
:1007700007D5A9F1010003E0200602D409F1010028
:100780008146A00502D50F99681C0860B9696D1CE7
:100790000E9888478246002ED1DC53E0002E51DDB2
:1007A000BAF1650F02D0BAF1450F4BD1A00549D57A
:1007B000B9696D1C24F44074761E0E9888478246F1
:1007C000002E0CDD2B2804D0BAF12D0F07D144F4F4
:1007D0008074B9696D1C0E9888478246761EE005C4
:1007E00001D52D2100E02B2108F8011BCDF82C802C
:1007F00021E00DF12901761E44F4007488450CD2E5
:10080000AAF1300010F0FF0088F8000002D10B9927
:10081000884509D908F1010806E0E00501D524481A
:1008200001E042F20F708146B9696D1C0E9888474D
:1008300082460F980560002E04DD504601F00CF84A
:100840000028D6D1F9690E988847FF208BF8000060
:1008500088F800000020069007904B466A4608A9D9
:1008600006A8FFF777FEA00502D46FF001002AE783
:1008700014F0240F0AD0E00714D1DDE9061238681D
:10088000031D3B600068C0E900120BE0DDE90601D2
:1008900000F0F6F80146E00704D13868021D3A601E
:1008A0000068016028460EE7000014400000F03F99
:1008B000F1D8FFFF426842B1016811F8013B23B152
:1008C000521EC0E90012184670470121C160881EFF
:1008D000704742685AB1C368016843B983688B4264
:1008E00005D0491E521CC0E90012002070474FF08D
:1008F000FF3070472DE9F05F8246007800271546EB
:100900008B460AF10104B946302801D09DB113E0AD
:1009100014F8010B0127782803D0582801D045B1DD
:100920000AE00DB1102D07D10027102514F8010B96
:1009300002E0082500E00A250026B0460EE005FB8F
:10094000080005FB06F1012701EB10461FFA80F8AD
:10095000B6F5803F00D3B94614F8010B294600F0E4
:1009600075F80028EBDABBF1000F05D00FB1641E5B
:1009700000E05446CBF80040B9F1000F06D000F07B
:100980004BFF02210160C81EBDE8F09F48EA064007
:10099000FAE710B5141E73F1000408DA401C41F1A7
:1009A000000192185B411A4301D120F0010010BDF3
:1009B0002DE9F04D92469B4611B1B1FA81F202E069
:1009C000B0FA80F220329046FFF7A6FD04460F46AB
:1009D00040EA0A0041EA0B0153465A46084313D045
:1009E000114653EA010019D0C8F140025046FFF702
:1009F00009FC05460E46504659464246FFF78CFD17
:100A0000084305D0012004E020463946BDE8F08DBA
:100A10000020054346EAE0762C4337430A986305F5
:100A2000E40AA0EB08000022FD0A44EA47540A3019
:100A300002D500200146E9E7010510196941DDE909
:100A4000084500196941BDE8F04DA2E73A2800D2F7
:100A5000303820F02002412A01D3A2F13700884229
:100A600001D34FF0FF3070470EB540F2334202928F
:100A70000022CDE900221346FFF79AFF03B000BD24
:100A800001F0004330B421F0004150EA010206D0E9
:100A90000A0DA2F56072C1F31301002A02DC30BC1A
:100AA00000207047440F44EAC104C100E01830BC84
:100AB00000EBC250AFF300800029A8BF7047401C74
:100AC000490008BF20F00100704710B4B0FA80FC64
:100AD00000FA0CF050EA010404BF10BC704749B1A1
:100AE000CCF1200421FA04F411FA0CF118BF012111
:100AF00021430843A3EB0C01CB1D4FEA00614FEAF1
:100B0000102042BF002010BC704700EBC3501044BF
:100B10000029A4BF10BC7047401C490008BF20F04A
:100B2000010010BC704700BFFEE770472DE9F0419F
:100B3000024600250026002000230024002791F80B
:100B400003C00CF00F0591F803C00CF0100CBCF1C1
:100B5000000F03D091F802C04CEA050591F800C0DF
:100B6000BCF1000F31D0146800202BE04FF0010CD5
:100B70000CFA00F3B1F800C00CEA03069E4220D143
:100B800083004FF00F0C0CFA03F7BC4305FA03FC8B
:100B90004CEA040491F803C0BCF1280F06D14FF0D1
:100BA000010C0CFA00FCC2F814C00AE091F803C072
:100BB000BCF1480F05D14FF0010C0CFA00FCC2F853
:100BC00010C0401C0828D1D31460B1F800C0BCF19B
:100BD000FF0F34DD546800202EE000F1080C4FF0C8
:100BE000010808FA0CF3B1F800C00CEA03069E42B3
:100BF00021D183004FF00F0C0CFA03F7BC4305FA28
:100C000003FC4CEA040491F803C0BCF1280F05D1A1
:100C100000F1080C08FA0CF8C2F8148091F803C02F
:100C2000BCF1480F07D100F1080C4FF0010808FA99
:100C30000CF8C2F81080401C0828CED35460BDE8E0
:100C4000F0810000F8B504460D4616461F461148CF
:100C5000844204D10121042000F008F90EE00E487E
:100C6000844204D10121082000F000F906E00B487D
:100C7000844203D10121102000F0F8F8ADF80050B3
:100C80008DF803608DF8027069462046FFF74EFF2D
:100C9000F8BD000000080140000C014000100140B8
:100CA00000BFFEE710B50323102251020348FFF7EF
:100CB000C9FF01200249086010BD0000001001407A
:100CC000B401224200BFFEE77047000070B500216A
:100CD00000230F22C47804B3154C246804F4E064A4
:100CE000C4F5E064210AC1F10403CA40447804FA5F
:100CF00003F184781440214309010E4C0678A15574
:100D0000047804F01F050124AC4005786D11AD0096
:100D100005F1E025C5F8004109E0047804F01F055D
:100D20000124AC40044D0678761145F8264070BD8C
:100D30000CED00E000E400E080E100E02DE9F0418E
:100D400088B005460C4616461F46DDF8388001215E
:100D5000084600F08BF8B5F1804F08D10121084614
:100D600000F074F83146204600F0B6F916E0344839
:100D7000854208D10121022000F068F83146204662
:100D800000F006FA0AE02F48854207D1012104202D
:100D900000F05CF83146204600F060FA781E80B220
:100DA000ADF81800A8F1010080B2ADF814000020E1
:100DB000ADF81A00ADF8160005A9284600F0ECFBC6
:100DC0006020ADF804000120ADF806000020ADF869
:100DD0000A00ADF80C0044B901A9284600F080FAD9
:100DE0000821284600F0C8FA1FE0012C08D101A90B
:100DF000284600F0CBFA0821284600F019FB14E041
:100E0000022C08D101A9284600F020FB0821284621
:100E100000F06CFB09E0032C07D101A9284600F083
:100E20006FFB0821284600F0A9FB0121284600F0AD
:100E30003FFA0121284600F047FA08B0BDE8F081EA
:100E400000040040000800407047000029B1064A35
:100E5000D2690243044BDA6104E0034AD269824357
:100E6000014BDA61704700000010024029B1064AC8
:100E700092690243044B9A6104E0034A92698243F7
:100E8000014B9A61704700000010024030B500210C
:100E90000022002400232D4D6D6805F00C0121B1C6
:100EA000042905D0082923D105E0294D056022E059
:100EB000274D05601FE0254D6D6805F47012234D28
:100EC0006D6805F48034022505EB92421CB9214D72
:100ED000554305600BE01D4D6D6805F400351DB1EF
:100EE0001C4D5543056002E0194D5543056002E075
:100EF000174D056000BF00BF144D6D6805F0F0018F
:100F00000909154D6B5C0568DD4045600F4D6D6846
:100F100005F4E061090A104D6B5C4568DD408560B1
:100F20000A4D6D6805F46051C90A0B4D6B5C45684C
:100F3000DD40C560054D6D6805F44041890B074DE6
:100F40006B5CC568B5FBF3F5056130BD0010024070
:100F500000127A0000093D001C0000202C00002037
:100F6000704710B500F002F810BD00000CB500206D
:100F7000019000903348006840F4803031490860A7
:100F800000BF3048006800F4003000900198401C19
:100F90000190009818B90198B0F5A06FF1D12948D7
:100FA000006800F4003010B10120009001E0002042
:100FB00000900098012843D12348006840F01000B9
:100FC000214908600846006820F0030008600846D0
:100FD000006840F0020008601A48406819494860FB
:100FE0000846406848600846406840F480604860B1
:100FF0000846406820F47C1048600846406840F489
:10100000E81048600846006840F08070086000BF43
:101010000C48006800F000700028F9D009484068CA
:1010200020F00300074948600846406840F002008D
:10103000486000BF0348406800F00C000828F9D160
:101040000CBD00000010024000200240042808D11E
:101050004FF0E021096941F004014FF0E0221161F5
:1010600007E04FF0E021096921F004014FF0E02290
:10107000116170477047000010B51348006840F0D8
:1010800001001149086008464068104908400E49AF
:101090004860084600680E4908400B490860084649
:1010A000006820F4802008600846406820F4FE00B4
:1010B00048604FF41F008860FFF753FF4FF0006057
:1010C0000449086010BD0000001002400000FFF855
:1010D000FFFFF6FE08ED00E070B505460C46CDB901
:1010E00034B90323182201212748FFF7ABFD49E05B
:1010F000012C06D10323182220212348FFF7A2FD4B
:1011000040E0022C3ED103231822A1031E48FFF722
:1011100099FD37E0012D10D134B9032318220221A3
:101120001948FFF78FFD2DE0012C2BD10323182246
:1011300008211648FFF786FD24E0022D10D134B9AE
:101140000323182204211048FFF77CFD1AE0012C2C
:1011500018D103231822A1020B48FFF773FD11E0F9
:10116000032D0FD134B90323182208210648FFF7B5
:1011700069FD07E0012C05D103231822E102034891
:10118000FFF760FD70BD000000080140000C014049
:1011900070B505460C46CDB934B903231822402159
:1011A0002B48FFF74FFD52E0012C06D103231822F4
:1011B00010212848FFF746FD49E0022C47D10323C0
:1011C000182240212448FFF73DFD40E0012D19D1B0
:1011D00034B90323182280211D48FFF733FD36E080
:1011E000012C06D10323182220211A48FFF72AFDDB
:1011F0002DE0022C2BD10323182280211648FFF763
:1012000021FD24E0022D10D134B90323182201213D
:101210001048FFF717FD1AE0012C18D103231822FC
:1012200021020D48FFF70EFD11E0032D0FD134B957
:101230000323182202210748FFF704FD07E0012CD1
:1012400005D10323182261020348FFF7FBFC70BDA0
:1012500000080140000C01400010014070B5044638
:101260000D4634B90323182240211048FFF7EAFC49
:101270001AE0012C06D10323182280210B48FFF726
:10128000E1FC11E0022C06D103231822E1010748FA
:10129000FFF7D8FC08E0032C06D1032318224FF4F3
:1012A00000710248FFF7CEFC70BD0000000C014049
:1012B00021B1028842F08002028004E002884FF6E9
:1012C0007F731A400280704721B1028842F0010208
:1012D000028004E002884FF6FE731A4002807047D5
:1012E00070B5002400220023058C4FF6FE763540B1
:1012F0000584028C8388048B4FF68F752C40B51EB5
:101300002C400D882C43751E2A400D892A434D8898
:101310002A43144DA8420BD0134DA84208D0134DB8
:10132000A84205D0124DA84202D0124DA84213D1B6
:101330004FF6F7752A404D892A434FF6FB752A4030
:101340008D882A434FF6FF652B404FF6FF552B4003
:101350008D892B43CD892B4383800483CD8885865B
:10136000028470BD002C0140003401400040014067
:1013700000440140004801400A460021018B4FF61D
:10138000F7731940114301837047000070B50024C2
:1013900000220023058C4FF6EF7635400584028C41
:1013A0008388048B48F6FF752C404FF6FF452C4090
:1013B0000D884FF6FF7606EA05252C434FF6DF75BC
:1013C0002A400D8906EA05152A434D8806EA0515C7
:1013D0002A43154DA84202D0144DA8421DD14FF604
:1013E0007F752A404D894FF6FF7606EA05152A4398
:1013F0004FF6BF752A408D8806EA05152A434FF639
:10140000FF352B404FF2FF752B408D8906EA85058D
:101410002B43CD8906EA85052B4383800483CD8841
:101420000587028470BD0000002C0140003401409B
:101430000A460021018B4FF2FF7319404FF6FF73EC
:1014400003EA0223194301837047000070B50024AA
:1014500000220023058C4FF6FF6635400584028C80
:101460008388848B4FF68F752C404FF6FC752C408B
:101470000D882C434FF6FF552A400D894FF6FF7615
:1014800006EA05252A434D8806EA05252A43154D17
:10149000A84202D0144DA8421DD14FF2FF752A4038
:1014A0004D894FF6FF7606EA05252A434FF6FF35AC
:1014B0002A408D8806EA05252A434EF6FF752B4003
:1014C0004DF6FF752B408D8906EA05152B43CD8916
:1014D00006EA05152B4383808483CD8885870284A3
:1014E00070BD0000002C0140003401400A4600217C
:1014F000818B4FF6F77319401143818370470000C9
:1015000070B5002200230024058C4EF6FF7635408E
:101510000584038C8488828B48F6FF752A404FF639
:10152000FF452A400D884FF6FF7606EA05252A4337
:101530004DF6FF752B400D8906EA05352B434D8886
:1015400006EA05352B430B4DA84202D00A4DA842AE
:1015500008D14BF6FF752C408D894FF6FF7606EAD1
:1015600085152C4384808283CD88A0F84050038465
:1015700070BD0000002C0140003401400A460021EB
:10158000818B4FF2FF7319404FF6FF7303EA02237A
:101590001943818370470000002202881D4B984246
:1015A0000ED01D4B98420BD0B0F1804F08D01B4B92
:1015B000984205D01A4B984202D01A4B984204D157
:1015C0004FF68F731A404B881A43174B984207D037
:1015D000164B984204D04FF6FF431A40CB881A436B
:1015E00002808B8883850B8803850A4B98420BD039
:1015F000094B984208D00E4B984205D00D4B9842AB
:1016000002D00D4B984201D10B7A038601238382CD
:1016100070470000002C01400034014000040040ED
:1016200000080040000C0040001000400014004082
:1016300000400140004401400048014010B540F224
:101640002551064800F01AF830B10448001D008802
:10165000C1B2034800F0CEF810BD000000380140D0
:101660000000002021B1828942F40052828104E00E
:1016700082894DF6FF731A408281704770B5024629
:10168000002400230025002040F66A16B14200D154
:1016900000BFC1F3421501F01F03012606FA03F350
:1016A000012D02D19689334006E0022D02D1168A1F
:1016B000334001E0968A33400C12012606FA04F406
:1016C0001688344013B10CB1012000E0002070BD39
:1016D000F0B50346002400260025002040F66A17D6
:1016E000B94200D100BF1846C1F3421401F01F06F1
:1016F000012707FA06F5012C01D10C3004E0022C79
:1017000001D1103000E014301AB107682F43076090
:1017100002E00768AF430760F0BD00002DE9F04725
:1017200086B005460E460024A24600BFA14600270B
:10173000B08900B100BF2F462C8A4CF6FF700440E0
:10174000F08804432C82AC894EF6F3100440B08834
:1017500031890843718908430443AC81AC8A4FF650
:10176000FF400440B0890443AC8201A8FFF78EFB20
:101770001F48874202D1DDF810A001E0DDF80CA07F
:10178000A88900F4004040B10AEBCA0000EB0A103F
:1017900031684900B0FBF1F807E00AEBCA0000EB42
:1017A0000A1031688900B0FBF1F86420B8FBF0F052
:1017B00004012009642101FB1089A88900F400407C
:1017C00040B1322000EBC900B0FBF1F000F007009F
:1017D000044308E0322000EB09106421B0FBF1F073
:1017E00000F00F0004432C8106B0BDE8F087000034
:1017F00000380140427903799A4201D100224271B6
:1018000043790268D1544279521C4271C279521C08
:10181000C271704700BFFEE70048704748000020D3
:1018200001480068704700004800002002E008C836
:10183000121F08C1002AFAD170477047002001E04A
:1018400001C1121F002AFBD1704700000149086046
:10185000704700004800002030380A2801D20120DB
:1018600070470020704730B583B00446FFF7D8FFBB
:1018700005460020CDE90000024621466846FEF7F5
:10188000ECFC2846FFF7E2FFDDE9000103B030BDC4
:1018900010B56FF00400FFF7D9FB0A4800680A4949
:1018A000B0FBF1F0094908700846007800EB4001F0
:1018B000C1EBC0104FF6FF7101EAC0000449088077
:1018C00010BD00003000002000127A001800002037
:1018D0001A00002010B5024600200F4B9A4200D19A
:1018E0000E490F4B9A4200D10E490F4B9A4200D13C
:1018F0000E49CB79002B0EDD8B790C79A34201D1F7
:1019000000238B718C790B68185D8B795B1C8B7154
:10191000CB795B1ECB7110BD003801400000002068
:101920000044004008000020004800401000002053
:101930002DE9F04180460E46174600240FE0404650
:10194000FFF7C8FF054655B135550A2D02D1601C79
:10195000C4B206E0601CC4B2BC4200DD0024BC423C
:10196000EDDB00BF002030552046BDE8F0810000CF
:101970001FB5FFF78DFFFFF795F94820642300227C
:10198000114600902348FFF7D9F94820642300222C
:10199000012100901F48FFF7D1F94820642300225D
:1019A000022100901B48FFF7C9F94FF4165200219D
:1019B000194800F037F800BF00262AE00A2201A9E2
:1019C0001548FFF7B5FF20B314A101A8FEF7CCFB23
:1019D0008146FFF748FF0746FEF7F5FB04460FA1D7
:1019E0000020FEF7C1FB8146FFF73DFF0746FEF7EB
:1019F000EAFB05460AA10020FEF7B6FB0746FEF704
:101A0000D5FB0646034934310C80091D0D80091DA4
:101A10000E80D3E700080040003801402C00000091
:101A20000A000000F0B585B004460D4617460121B6
:101A30000846FFF71BFA3848844205D10121880384
:101A4000FFF714FA252610E03448844205D101211D
:101A50004804FFF7FBF9262607E03148844204D109
:101A600001218804FFF7F2F927266DB90323182214
:101A70004FF400712B48FFF7E5F80323042211020D
:101A80002848FFF7DFF81CE0012D0CD103231822B2
:101A900004212448FFF7D6F8032304220821214813
:101AA000FFF7D0F80DE0022D0BD1032318226902B5
:101AB0001D48FFF7C7F80323042251021A48FFF715
:101AC000C1F801970020ADF80800ADF80A00ADF8A4
:101AD0000C00ADF810000C20ADF80E008DF8006081
:101AE00000208DF801008DF8020001208DF8030020
:101AF0006846FFF7EBF801A92046FFF70FFE012229
:101B000040F225512046FFF7E3FD01212046FFF773
:101B1000A9FD05B0F0BD00000038014000440040C0
:101B20000048004000080140000C014000404040D7
:101B300040404040404041414141414040404040A0
:101B4000404040404040404040404040400502024C
:101B5000020202020202020202020202022020200B
:101B60002020202020202002020202020202909067
:101B70009090909010101010101010101010101065
:101B800010101010101010100202020202028888B9
:101B900088888888080808080808080808080808C5
:101BA00008080808080808080202020240000000AD
:101BB0002D1B0008D41B0008000000204C00000072
:101BC0002C180008201C00084C0000202C050000E8
:101BD0003C1800084C00002064000000B000002009
:101BE00064000000140100206400000000000000F8
:101BF00000000000010203040102030406070809B3
:101C00000204060800A24A040000000000000000D0
:101C1000010203040607080900000000000000009C
:0400000508000131BD
:00000001FF
