:020000040800F2
:100000008805002045010008DD030008B50300084D
:10001000D90300083D020008D908000800000000CC
:10002000000000000000000000000000690500085A
:100030004102000800000000510400087D0600088D
:100040005F0100085F0100085F0100085F01000810
:100050005F0100085F0100085F0100085F01000800
:100060005F0100085F0100085F0100085F010008F0
:100070005F0100085F0100085F0100085F010008E0
:100080005F0100085F0100085F0100085F010008D0
:100090005F0100085F0100085F0100085F010008C0
:1000A0005F0100085F0100085F0100085F010008B0
:1000B0005F0100085F0100085F0100085F010008A0
:1000C0005F0100085F0100085F0100085F01000890
:1000D0005F010008E10600085F0100085F010008F9
:1000E0005F0100085F0100085F0100085F01000870
:1000F0005F0100085F0100085F0100085F01000860
:100100005F0100085F0100085F0100085F0100084F
:100110005F0100085F0100085F0100085F0100083F
:100120005F0100085F0100085F0100085F0100082F
:10013000DFF80CD000F03CF800480047E90900085F
:10014000880500200648804706480047FEE7FEE78E
:10015000FEE7FEE7FEE7FEE7FEE7FEE7FEE7FEE777
:100160008106000831010008D2B201E000F8012B3D
:10017000491EFBD270470022F6E710B513460A4627
:1001800004461946FFF7F0FF204610BD30B505467E
:100190002A460B4612F8010B13F8014B08B1A04296
:1001A000F8D01CB1002802D06D1CF1E7284630BD04
:1001B000064C074D06E0E06840F0010394E80700B4
:1001C00098471034AC42F6D3FFF7B6FF980B0008FF
:1001D000B80B00082DE9F0479AB0804689461546CD
:1001E0001E460027BA46642101A8FFF7C4FF49460E
:1001F000404600F040FC10A1404600F03CFC00BF2F
:100200008CB1404600F0C2FB044650460AF1010A98
:1002100001A90C54294601A8FFF7B8FF18B1012025
:100220001AB0BDE8F0877F1C012000F089FBB742BF
:10023000E6D30020F4E700000D0A000000BFFEE74F
:1002400070472DE9F04102460025002600200023DA
:100250000024002791F803C00CF00F0591F803C0AB
:100260000CF0100CBCF1000F03D091F802C04CEA66
:10027000050591F800C0BCF1000F31D014680020D2
:100280002BE04FF0010C0CFA00F3B1F800C00CEABF
:1002900003069E4220D183004FF00F0C0CFA03F7A7
:1002A000BC4305FA03FC4CEA040491F803C0BCF11A
:1002B000280F06D14FF0010C0CFA00FCC2F814C054
:1002C0000AE091F803C0BCF1480F05D14FF0010CD2
:1002D0000CFA00FCC2F810C0401C0828D1D31460EE
:1002E000B1F800C0BCF1FF0F34DD546800202EE0EF
:1002F00000F1080C4FF0010808FA0CF3B1F800C047
:100300000CEA03069E4221D183004FF00F0C0CFA39
:1003100003F7BC4305FA03FC4CEA040491F803C05C
:10032000BCF1280F05D100F1080C08FA0CF8C2F84E
:10033000148091F803C0BCF1480F07D100F1080CFC
:100340004FF0010808FA0CF8C2F81080401C082889
:10035000CED35460BDE8F081F8B504460D4616468C
:100360001F461148844204D10121042000F082F884
:100370000EE00E48844204D10121082000F07AF8F2
:1003800006E00B48844203D10121102000F072F8EE
:10039000ADF800508DF803608DF802706946204674
:1003A000FFF74FFFF8BD000000080140000C0140BE
:1003B0000010014000BFFEE710B5032310225102D8
:1003C0000348FFF7C9FF01200249086010BD000083
:1003D00000100140B401224200BFFEE77047000058
:1003E00070B5002100230F22C47804B3154C246893
:1003F00004F4E064C4F5E064210AC1F10403CA40D6
:10040000447804FA03F184781440214309010E4C26
:100410000678A155047804F01F050124AC40057846
:100420006D11AD0005F1E025C5F8004109E0047843
:1004300004F01F050124AC40044D0678761145F800
:10044000264070BD0CED00E000E400E080E100E03B
:100450007047000029B1064AD2690243044BDA61B1
:1004600004E0034AD2698243014BDA61704700001D
:100470000010024029B1064A92690243044B9A6176
:1004800004E0034A92698243014B9A61704700007D
:100490000010024030B500210022002400232D4D21
:1004A0006D6805F00C0121B1042905D0082923D17C
:1004B00005E0294D056022E0274D05601FE0254D30
:1004C0006D6805F47012234D6D6805F480340225C3
:1004D00005EB92421CB9214D554305600BE01D4DC3
:1004E0006D6805F400351DB11C4D5543056002E0F3
:1004F000194D5543056002E0174D056000BF00BF70
:10050000144D6D6805F0F0010909154D6B5C056827
:10051000DD4045600F4D6D6805F4E061090A104D3E
:100520006B5C4568DD4085600A4D6D6805F460517F
:10053000C90A0B4D6B5C4568DD40C560054D6D68B3
:1005400005F44041890B074D6B5CC568B5FBF3F5BD
:10055000056130BD0010024000127A0000093D0024
:100560001C0000202C000020704710B500F002F89D
:1005700010BD00000CB500200190009033480068C9
:1005800040F480303149086000BF3048006800F412
:10059000003000900198401C0190009818B9019813
:1005A000B0F5A06FF1D12948006800F4003010B117
:1005B0000120009001E0002000900098012843D124
:1005C0002348006840F01000214908600846006890
:1005D00020F0030008600846006840F00200086050
:1005E0001A4840681949486008464068486008460B
:1005F000406840F4806048600846406820F47C1001
:1006000048600846406840F4E810486008460068C2
:1006100040F08070086000BF0C48006800F0007077
:100620000028F9D00948406820F0030007494860D5
:100630000846406840F00200486000BF0348406838
:1006400000F00C000828F9D10CBD00000010024099
:1006500000200240042808D14FF0E021096941F050
:1006600004014FF0E022116107E04FF0E021096939
:1006700021F004014FF0E022116170477047000043
:1006800010B51348006840F00100114908600846A1
:100690004068104908400E494860084600680E4905
:1006A00008400B4908600846006820F48020086074
:1006B0000846406820F4FE0048604FF41F00886040
:1006C000FFF753FF4FF000600449086010BD0000C1
:1006D000001002400000FFF8FFFFF6FE08ED00E00A
:1006E00010B540F22551064800F027F830B1044813
:1006F000001D0088C1B2034800F0DEF810BD000004
:10070000003801400000002021B1828942F40052EB
:10071000828104E082894DF6FF731A40828170471E
:1007200002460020B1F5007F00D100BF13880B40C6
:100730000BB1012000E00020704770B50246002494
:1007400000230025002040F66A16B14200D100BF08
:10075000C1F3421501F01F03012606FA03F3012D30
:1007600002D19689334006E0022D02D1168A334029
:1007700001E0968A33400C12012606FA04F416882A
:10078000344013B10CB1012000E0002070BDF0B581
:100790000346002400260025002040F66A17B942CF
:1007A00000D100BF1846C1F3421401F01F06012713
:1007B00007FA06F5012C01D10C3004E0022C01D11E
:1007C000103000E014301AB107682F43076002E0D0
:1007D0000768AF430760F0BD2DE9F04786B00546D6
:1007E0000E460024A24600BFA1460027B08900B1F2
:1007F00000BF2F462C8A4CF6FF700440F08804435B
:100800002C82AC894EF6F3100440B088318908433D
:10081000718908430443AC81AC8A4FF6FF40044021
:10082000B0890443AC8201A8FFF734FE1F48874219
:1008300002D1DDF810A001E0DDF80CA0A88900F4D9
:10084000004040B10AEBCA0000EB0A1031684900D1
:10085000B0FBF1F807E00AEBCA0000EB0A103168C0
:100860008900B0FBF1F86420B8FBF0F00401200926
:10087000642101FB1089A88900F4004040B13220B6
:1008800000EBC900B0FBF1F000F00700044308E002
:10089000322000EB09106421B0FBF1F000F00F00F2
:1008A00004432C8106B0BDE8F08700000038014009
:1008B000C1F3080282807047427903799A4201D1DC
:1008C0000022427143790268D1544279521C42712C
:1008D000C279521CC271704700BFFEE702E008C82F
:1008E000121F08C1002AFAD170477047002001E0AA
:1008F00001C1121F002AFBD17047000010B56FF034
:100900000400FFF7A7FE0A4800680A49B0FBF1F0AF
:10091000094908700846007800EB4001C1EBC0109F
:100920004FF6FF7101EAC0000449088010BD0000C5
:100930004800002000127A00180000201A00002051
:100940000146114A12884A434FF0E0235A610022BF
:100950009A611A46126942F001021A6100BF4FF013
:10096000E022106900F001021AB100F48032002A7E
:10097000F5D04FF0E022126922F001024FF0E0239F
:100980001A6100229A6170471A00002010B50246D1
:1009900000200F4B9A4200D10E490F4B9A4200D1D2
:1009A0000E490F4B9A4200D10E49CB79002B0EDD38
:1009B0008B790C79A34201D100238B718C790B6860
:1009C000185D8B795B1C8B71CB795B1ECB7110BD75
:1009D00000380140000000200044004008000020D2
:1009E0000048004010000020FFF788FFFFF7E4FCFC
:1009F0004FF416520021124800F04AF80123102249
:100A000011021048FFF7A8FC00BF41F288330EA284
:100A10000EA10B48FFF7DEFB0D4908600846006891
:100A20000028F2D00AE00B48006808B9012000E075
:100A30000020084908603220FFF782FFF3E700003A
:100A400000380140000C01404F4B000041540000B1
:100A500038000020B081214270B504460D46294679
:100A60002046FFF725FF00BF80212046FFF758FEF4
:100A70000028F9D070BD70B505460C4604E014F8A6
:100A8000011B2846FFF7E8FF20780028F7D170BD4A
:100A9000F0B585B004460D46174601210846FFF71C
:100AA000E9FC3848844205D101218803FFF7E2FCC4
:100AB000252610E03448844205D101214804FFF77F
:100AC000C9FC262607E03148844204D1012188046C
:100AD000FFF7C0FC27266DB9032318224FF40071DD
:100AE0002B48FFF739FC0323042211022848FFF7A3
:100AF00033FC1CE0012D0CD10323182204212448CF
:100B0000FFF72AFC0323042208212148FFF724FCD5
:100B10000DE0022D0BD10323182269021D48FFF7B7
:100B20001BFC0323042251021A48FFF715FC01970E
:100B30000020ADF80800ADF80A00ADF80C00ADF8E3
:100B400010000C20ADF80E008DF8006000208DF82C
:100B500001008DF8020001208DF803006846FFF7C0
:100B60003FFC01A92046FFF737FE012240F2255144
:100B70002046FFF70CFE01212046FFF7C5FD05B01A
:100B8000F0BD000000380140004400400048004033
:100B900000080140000C0140B80B000800000020D4
:100BA0005C000000DC080008140C00085C00002059
:100BB0002C050000EC0800085C0000206400000028
:100BC000C000002064000000240100206400000038
:100BD0000000000000000000010203040102030401
:100BE00006070809020406080000000000000000D3
:100BF00000000000000000000000000000000000F5
:100C000000A24A04000000000000000001020304EA
:040C100006070809C2
:0400000508000131BD
:00000001FF
