:020000040800F2
:1000000060050020450100082D03000805030008D5
:10001000290300088D010008AD070008000000005A
:10002000000000000000000000000000F9030008CC
:100030009101000800000000B5030008E504000875
:100040005F0100085F0100085F0100085F01000810
:100050005F0100085F0100085F0100085F01000800
:100060005F0100085F0100085F0100085F010008F0
:100070005F0100085F0100085F0100085F010008E0
:100080005F0100085F0100085F0100085F010008D0
:100090005F0100085F0100085F0100085F010008C0
:1000A0005F0100085F0100085F0100085F010008B0
:1000B000550500085F0100085F0100085F010008A6
:1000C0005F0100085F0100085F0100085F01000890
:1000D0005F010008110700085F0100085F010008C8
:1000E0005F0100085F0100085F0100085F01000870
:1000F0005F0100085F0100085F0100085F01000860
:100100005F0100085F0100085F0100085F0100084F
:100110005F0100085F0100085F0100085F0100083F
:100120005F0100085F0100085F0100085F0100082F
:10013000DFF80CD000F018F8004800473908000834
:10014000600500200648804706480047FEE7FEE7B6
:10015000FEE7FEE7FEE7FEE7FEE7FEE7FEE7FEE777
:10016000F504000831010008064C074D06E0E06880
:1001700040F0010394E8070098471034AC42F6D3EE
:10018000FFF7DAFF700800089008000800BFFEE7DC
:1001900070472DE9F041024600250026002000238B
:1001A0000024002791F803C00CF00F0591F803C05C
:1001B0000CF0100CBCF1000F03D091F802C04CEA17
:1001C000050591F800C0BCF1000F31D01468002083
:1001D0002BE04FF0010C0CFA00F3B1F800C00CEA70
:1001E00003069E4220D183004FF00F0C0CFA03F758
:1001F000BC4305FA03FC4CEA040491F803C0BCF1CB
:10020000280F06D14FF0010C0CFA00FCC2F814C004
:100210000AE091F803C0BCF1480F05D14FF0010C82
:100220000CFA00FCC2F810C0401C0828D1D314609E
:10023000B1F800C0BCF1FF0F34DD546800202EE09F
:1002400000F1080C4FF0010808FA0CF3B1F800C0F7
:100250000CEA03069E4221D183004FF00F0C0CFAEA
:1002600003F7BC4305FA03FC4CEA040491F803C00D
:10027000BCF1280F05D100F1080C08FA0CF8C2F8FF
:10028000148091F803C0BCF1480F07D100F1080CAD
:100290004FF0010808FA0CF8C2F81080401C08283A
:1002A000CED35460BDE8F081F8B504460D4616463D
:1002B0001F461148844204D10121042000F08CF82B
:1002C0000EE00E48844204D10121082000F084F899
:1002D00006E00B48844203D10121102000F07CF895
:1002E000ADF800508DF803608DF802706946204625
:1002F000FFF74FFFF8BD000000080140000C01406F
:100300000010014000BFFEE710B503231022510288
:100310000348FFF7C9FF01200249086010BD000033
:1003200000100140B401224200BFFEE77047000008
:1003300070B5002100230F22C47804B3154C246843
:1003400004F4E064C4F5E064210AC1F10403CA4086
:10035000447804FA03F184781440214309010E4CD7
:100360000678A155047804F01F050124AC400578F7
:100370006D11AD0005F1E025C5F8004109E00478F4
:1003800004F01F050124AC40044D0678761145F8B1
:10039000264070BD0CED00E000E400E080E100E0EC
:1003A00002490143024A1160704700000000FA054B
:1003B0000CED00E07047000029B1064AD269024303
:1003C000044BDA6104E0034AD2698243014BDA61EB
:1003D000704700000010024029B1064A92690243AA
:1003E000044B9A6104E0034A92698243014B9A618B
:1003F0007047000000100240704710B500F002F88E
:1004000010BD00000CB5002001900090334800683A
:1004100040F480303149086000BF3048006800F483
:10042000003000900198401C0190009818B9019884
:10043000B0F5A06FF1D12948006800F4003010B188
:100440000120009001E0002000900098012843D195
:100450002348006840F01000214908600846006801
:1004600020F0030008600846006840F002000860C1
:100470001A4840681949486008464068486008467C
:10048000406840F4806048600846406820F47C1072
:1004900048600846406840F4E81048600846006834
:1004A00040F08070086000BF0C48006800F00070E9
:1004B0000028F9D00948406820F003000749486047
:1004C0000846406840F00200486000BF03484068AA
:1004D00000F00C000828F9D10CBD0000001002400B
:1004E0000020024002480068401C01490860704733
:1004F0001800002010B51348006840F001001149B1
:10050000086008464068104908400E49486008469F
:1005100000680E4908400B4908600846006820F44E
:10052000802008600846406820F4FE0048604FF4D0
:100530001F008860FFF761FF4FF00060044908600A
:1005400010BD0000001002400000FFF8FFFFF6FEA3
:1005500008ED00E010B50121880700F020F858B13F
:100560000648006808B9012000E00020034908603F
:100570000121880700F004F810BD0000908121429D
:10058000CA430282704721B1028842F00102028010
:1005900004E002884FF6FE731A400280704730B5BF
:1005A0000246002000230024158A05EA01039589EC
:1005B00005EA010413B10CB1012000E0002030BDB8
:1005C0001AB183890B43838102E083898B43838142
:1005D00070470000002202881D4B98420ED01D4B30
:1005E00098420BD0B0F1804F08D01B4B984205D0F9
:1005F0001A4B984202D01A4B984204D14FF68F738F
:100600001A404B881A43174B984207D0164B984212
:1006100004D04FF6FF431A40CB881A4302808B88E0
:1006200083850B8803850A4B98420BD0094B98426F
:1006300008D00E4B984205D00D4B984202D00D4B7E
:10064000984201D10B7A0386012383827047000010
:10065000002C01400034014000040040000800402C
:10066000000C004000100040001400400040014019
:1006700000440140004801402DE9FF4104460F4677
:100680001646B4F1804F05D101210846FFF794FECC
:100690001C2510E01C48844205D101210846FFF7C3
:1006A0008BFE1D2507E01948844204D10121022058
:1006B000FFF782FE1E258DF80C5000208DF80D00EE
:1006C00001208DF80E008DF80F0003A8FFF730FE13
:1006D000781E80B2ADF80400701E80B2ADF8000044
:1006E0000020ADF80600ADF8020069462046FFF78D
:1006F00071FF012211462046FFF762FF01212046CB
:10070000FFF741FFBDE8FF81000400400008004002
:1007100010B540F22551064800F00EF830B10448FB
:10072000001D0088C1B2034800F030F810BD000081
:10073000003801400000002070B50246002400236C
:100740000025002040F66A16B14200D100BFC1F377
:10075000421501F01F03012606FA03F3012D02D111
:100760009689334006E0022D02D1168A334001E01B
:10077000968A33400C12012606FA04F41688344097
:1007800013B10CB1012000E0002070BD4279037963
:100790009A4201D10022427143790268D1544279D0
:1007A000521C4271C279521CC271704700BFFEE7F1
:1007B00002E008C8121F08C1002AFAD1704770472A
:1007C000002001E001C1121F002AFBD17047000088
:1007D00070B54FF44070FFF7E3FD144800684FF424
:1007E0007A72B0FBF2F1B1F1807F00D31DE021F00D
:1007F0007F40401E4FF0E022506150170F2200282A
:1008000007DA13071D0E0A4B00F00F04241F1D55B5
:1008100003E013071C0E074B1C5400BF00204FF0D1
:10082000E02290610720106100BF70BD1C00002015
:1008300018ED00E000E400E0FFF7CAFFFFF764FDF9
:100840000323102211460848FFF72EFD032304223C
:1008500002210648FFF728FD4FF47A721101C805FE
:10086000FFF70AFF00BFFEE7000C0140000801404F
:10087000900800080000002030000000B0070008C9
:10088000C00800083000002030050000C007000844
:10089000300000206400000094000020640000008C
:1008A000F8000020640000000000000000A24A04DC
:1008B0000000000000000000010203040607080910
:0400000508000131BD
:00000001FF
