:020000040800F2
:100000009008002045010008FD060008D5060008FC
:10001000F9060008490500083D0900080000000035
:1000200000000000000000000000000021070008A0
:100030004D05000800000000FF0600083508000814
:100040005F0100085F0100085F0100085F01000810
:100050005F0100085F0100085F0100085F01000800
:100060005F0100085F0100085F0100085F010008F0
:100070005F0100085F0100085F0100085F010008E0
:100080005F0100085F0100085F0100085F010008D0
:100090005F0100085F0100085F0100085F010008C0
:1000A0005F0100085F0100085F0100085F010008B0
:1000B0005F0100085F0100085F0100085F010008A0
:1000C0005F0100085F0100085F0100085F01000890
:1000D0005F010008990800085F0100085F0100083F
:1000E0005F0100085F0100085F0100085F01000870
:1000F0005F0100085F0100085F0100085F01000860
:100100005F0100085F0100085F0100085F0100084F
:100110005F0100085F0100085F0100085F0100083F
:100120005F0100085F0100085F0100085F0100082F
:10013000DFF80CD000F018F800480047F10900087B
:10014000900800200648804706480047FEE7FEE783
:10015000FEE7FEE7FEE7FEE7FEE7FEE7FEE7FEE777
:100160003908000831010008064C074D06E0E06838
:1001700040F0010394E8070098471034AC42F6D3EE
:10018000FFF7DAFF200A0008400A000821B1826860
:1001900042F00102826003E0826822F00102826084
:1001A0007047014600208A6802F004020AB101206B
:1001B00000E0002070470146C86C80B270470246DC
:1001C000002013680B400BB1012000E000207047B5
:1001D000014600208A6802F008020AB1012000E00E
:1001E0000020704730B502460020002350680F4CB5
:1001F00020400D790C6844EA052420435060906843
:100200000B4C2040D1E902542C434D7944EA45047B
:1002100020439060D06A20F470000C7C641EE4B22D
:10022000234340EA0350D06230BD0000FFFEF0FFE0
:10023000FDF7F1FFF0B504460D4600200021092D21
:1002400011DDE068A5F10A0606EB4607072606FA67
:1002500007F18843A5F10A0606EB460603FA06F104
:100260000843E0600CE0206905EB4507072606FA25
:1002700007F1884305EB450603FA06F108432061C0
:10028000072A0FDA606B561E06EB86071F2606FA52
:1002900007F18843561E06EB860605FA06F1084369
:1002A000606322E00D2A0FDA206BD61F06EB86076B
:1002B0001F2606FA07F18843D61F06EB860605FAC5
:1002C00006F10843206310E0E06AA2F10D0606EB98
:1002D00086071F2606FA07F18843A2F10D0606EBF2
:1002E000860605FA06F10843E062F0BD816841F038
:1002F00008018160704721B1826842F4A0028260E7
:1003000003E0826822F4A00282607047816841F0B5
:100310000401816070472DE9F04107468846144684
:100320000025002606E04146384600F00AF805445C
:10033000701CC6B2A642F6DBB5FBF4F080B2BDE895
:10034000F08170B504460D46072301222946204658
:10035000FFF770FF01212046FFF7CDFF00BF02210C
:100360002046FFF72CFF0028F9D02046FFF723FF97
:1003700070BD000030B585B005460C466C4885421E
:1003800004D10121401500F0BBF90EE06948854217
:1003900004D10121001500F0B3F906E0664885425A
:1003A00003D10121C80300F0ABF934B903230022C3
:1003B0000121624800F056F985E0012C06D10323A3
:1003C000002202215D4800F04DF97CE0022C06D1AC
:1003D000032300220421594800F044F973E0032C60
:1003E00006D1032300220821544800F03BF96AE0BB
:1003F000042C06D1032300221021504800F032F9CA
:1004000061E0052C06D10323002220214B4800F097
:1004100029F958E0062C06D1032300224021474841
:1004200000F020F94FE0072C06D1032300228021A1
:10043000424800F017F946E0082C06D103230022B9
:1004400001213F4800F00EF93DE0092C06D10323BD
:10045000002202213A4800F005F934E00A2C06D1C6
:10046000032300220121374800F0FCF82BE00B2C7D
:1004700006D1032300220221324800F0F3F822E0E3
:100480000C2C06D10323002204212E4800F0EAF8A8
:1004900019E00D2C06D1032300220821294800F081
:1004A000E1F810E00E2C06D103230022102125488C
:1004B00000F0D8F807E00F2C05D1032300222021FB
:1004C000204800F0CFF80020009001208DF80400B3
:1004D0008DF805004FF46020029000200390012069
:1004E0008DF8100069462846FFF77CFE072301229D
:1004F00021462846FFF79EFE01212846FFF746FECB
:100500002846FFF7F3FE00BF2846FFF761FE0028EC
:10051000FAD12846FFF7FAFE00BF2846FFF741FE52
:100520000028FAD101212846FFF7E5FE05B030BDCD
:100530000024014000280140003C01400008014027
:10054000000C01400010014000BFFEE770472DE99C
:10055000F041024600250026002000230024002749
:1005600091F803C00CF00F0591F803C00CF0100CCB
:10057000BCF1000F03D091F802C04CEA050591F8D8
:1005800000C0BCF1000F31D0146800202BE04FF008
:10059000010C0CFA00F3B1F800C00CEA03069E420D
:1005A00020D183004FF00F0C0CFA03F7BC4305FA7F
:1005B00003FC4CEA040491F803C0BCF1280F06D1F7
:1005C0004FF0010C0CFA00FCC2F814C00AE091F8DC
:1005D00003C0BCF1480F05D14FF0010C0CFA00FC30
:1005E000C2F810C0401C0828D1D31460B1F800C074
:1005F000BCF1FF0F34DD546800202EE000F1080C40
:100600004FF0010808FA0CF3B1F800C00CEA030639
:100610009E4221D183004FF00F0C0CFA03F7BC432C
:1006200005FA03FC4CEA040491F803C0BCF1280F5E
:1006300005D100F1080C08FA0CF8C2F8148091F802
:1006400003C0BCF1480F07D100F1080C4FF00108BE
:1006500008FA0CF8C2F81080401C0828CED3546069
:10066000BDE8F081F8B504460D4616461F4615480C
:10067000844204D10121042000F042F816E012481F
:10068000844204D10121082000F03AF80EE00F481E
:10069000844204D10121102000F032F806E00C4819
:1006A000844203D10121802000F02AF8ADF80050E7
:1006B0008DF803608DF8027069462046FFF747FF0A
:1006C000F8BD000000080140000C0140001001408E
:1006D000001C014000BFFEE710B5032310225102A9
:1006E0000348FFF7BFFF01200249086010BD00006A
:1006F00000100140B401224200BFFEE7704770477E
:1007000029B1064A92690243044B9A6104E0034A04
:1007100092698243014B9A617047000000100240C9
:10072000704710B500F002F810BD00000CB50020B5
:10073000019000903348006840F4803031490860EF
:1007400000BF3048006800F4003000900198401C61
:100750000190009818B90198B0F5A06FF1D129481F
:10076000006800F4003010B10120009001E000208A
:1007700000900098012843D12348006840F0100001
:10078000214908600846006820F003000860084618
:10079000006840F0020008601A4840681949486043
:1007A0000846406848600846406840F480604860F9
:1007B0000846406820F47C1048600846406840F4D1
:1007C000E81048600846006840F08070086000BF8C
:1007D0000C48006800F000700028F9D00948406813
:1007E00020F00300074948600846406840F00200D6
:1007F000486000BF0348406800F00C000828F9D1A9
:100800000CBD00000010024000200240042808D166
:100810004FF0E021096941F004014FF0E02211613D
:1008200007E04FF0E021096921F004014FF0E022D8
:10083000116170477047000010B51348006840F020
:1008400001001149086008464068104908400E49F7
:100850004860084600680E4908400B490860084691
:10086000006820F4802008600846406820F4FE00FC
:1008700048604FF41F008860FFF753FF4FF000609F
:100880000449086010BD0000001002400000FFF89D
:10089000FFFFF6FE08ED00E010B5002440F2255100
:1008A000054800F00DF830B10348001D0088C1B2C2
:1008B000024800F02FF810BD00380140040000206D
:1008C00070B50246002400230025002040F66A1679
:1008D000B14200D100BFC1F3421501F01F03012650
:1008E00006FA03F3012D02D19689334006E0022D6A
:1008F00002D1168A334001E0968A33400C12012659
:1009000006FA04F41688344013B10CB1012000E05B
:10091000002070BD028983889A420EDC0289838898
:100920009A4201D10022028103890268D1540289CE
:10093000521C0281C288521CC280704700BFFEE771
:1009400002E008C8121F08C1002AFAD17047704798
:10095000002001E001C1121F002AFBD170470000F6
:1009600010B56FF00400FFF751FF0A4800680A490C
:10097000B0FBF1F0094908700846007800EB40012F
:10098000C1EBC0104FF6FF7101EAC00004490880B6
:1009900010BD00009000002000127A00000000202E
:1009A000020000200146114A12884A434FF0E0231A
:1009B0005A6100229A611A46126942F001021A61D4
:1009C00000BF4FF0E022106900F001021AB100F4FC
:1009D0008032002AF5D04FF0E022126922F00102A5
:1009E0004FF0E0231A6100229A6170470200002054
:1009F000FFF7B6FFFFF770FE07210748FFF7BAFCC5
:100A000009E0642207210448FFF785FC03490880B8
:100A10006420FFF7C7FFF4E7002401408E000020A8
:100A2000400A000800000020A4000000400900085F
:100A3000E40A0008A4000020EC07000050090008A8
:100A400000000000A400002064000000000000007E
:100A50000000000008010020640000000000000009
:100A6000000000006C010020640000000000000095
:100A700000000000D0010020640000000000000021
:100A800000000000340200206400000000000000AC
:100A90000000000098020020640000000000000038
:100AA00000000000FC0200206400000000000000C4
:100AB000000000006003002064000000000000004F
:100AC0000000000000000000000000000000000026
:100AD00000A24A040000000000000000010203041C
:040AE00006070809F4
:0400000508000131BD
:00000001FF
