:020000040800F2
:10000000F00A0020CD01000809070008E1060008F9
:10001000050700087D020008BD0900080000000077
:10002000000000000000000000000000A107000820
:1000300081020008000000007D070008B5080008E4
:10004000E7010008E7010008E7010008E7010008F0
:10005000E7010008E7010008E7010008E7010008E0
:10006000E7010008E7010008E7010008E7010008D0
:10007000E7010008E7010008E7010008E7010008C0
:10008000E7010008E7010008E7010008E7010008B0
:10009000E7010008E7010008E70100088502000801
:1000A000E7010008E7010008E7010008E701000890
:1000B000E7010008E7010008E7010008E701000880
:1000C000E7010008E7010008E7010008E701000870
:1000D000E701000819090008E7010008E701000826
:1000E000E7010008E7010008E7010008E701000850
:1000F000E7010008E7010008E7010008E701000840
:10010000E7010008E7010008E7010008E70100082F
:10011000E7010008E7010008E7010008E70100081F
:10012000E7010008E7010008E7010008E70100080F
:1001300000F002F800F03AF80AA090E8000C8244BF
:100140008344AAF10107DA4501D100F02FF8AFF29C
:10015000090EBAE80F0013F0010F18BFFB1A43F0A5
:10016000010318473409000054090000103A24BF65
:1001700078C878C1FAD8520724BF30C830C144BF0C
:1001800004680C607047000000230024002500264E
:10019000103A28BF78C1FBD8520728BF30C148BFEA
:1001A0000B6070471FB51FBD10B510BD00F033F8D0
:1001B0001146FFF7F7FF00F04FFC00F051F803B4D1
:1001C000FFF7F2FF03BC00F0FBFB0000094880478B
:1001D00009480047FEE7FEE7FEE7FEE7FEE7FEE729
:1001E000FEE7FEE7FEE7FEE704480549054A064B41
:1001F00070470000B908000831010008F004002031
:10020000F00A0020F0060020F0060020704770473A
:10021000704770477047754600F02CF8AE460500F1
:100220006946534620F00700854618B020B5FFF711
:10023000DBFFBDE820404FF000064FF000074FF015
:1002400000084FF0000B21F00701AC46ACE8C009F4
:10025000ACE8C009ACE8C009ACE8C0098D467047FD
:1002600010B50446AFF300802046BDE81040FFF70C
:10027000A6BF0000004870478C04002000BFFEE7C6
:100280007047000010B50A2000F0C0FB104800685D
:10029000012809D10E488C30006808B9012000E01F
:1002A00000200B498C3108600A480068012809D1F8
:1002B00007488C30006808B9012000E0002004499C
:1002C0008C3108604FF4087000F006F810BD000093
:1002D0002481214214012142014908607047000035
:1002E00014040140002123498279002A3AD00A46A9
:1002F000126803689A430B461A600A1D1268036865
:100300009A430B1D1A60027911440A6803681A4364
:100310000A60184A0832126803689A43154B08337A
:100320001A601A1D126803689A43124B0C331A6044
:100330004279102A0ED11A1F126803681A430D4B16
:1003400008331A601A1D126803681A43094B0C33EC
:100350001A600DE00749427911440A6803681A439C
:100360000A6005E0027911440A6803689A430A604A
:1003700070470000000401402DE9FE4F80460D4605
:1003800092466548804502D14FF0000916E0634867
:10039000804502D14FF0010910E06148804502D14B
:1003A0004FF002090AE05F48804502D14FF003098F
:1003B00004E05D48804501D14FF00409012D03D1CF
:1003C00000240126062767E0022D03D1012402261E
:1003D000072761E0042D03D10224042608275BE0EF
:1003E000082D03D103240826092755E0102D03D139
:1003F000042410260A274FE0202D03D105242026AF
:10040000172749E0402D03D106244026172743E053
:10041000802D03D10724802617273DE0B5F5807F86
:1004200003D108246601172736E0B5F5007F04D113
:1004300009244FF4007617272EE0B5F5806F04D11C
:100440000A244FF48066282726E0B5F5006F04D112
:100450000B244FF4006628271EE0B5F5805F04D119
:100460000C244FF48056282716E0B5F5005F04D120
:100470000D244FF4005628270EE0B5F5804F04D127
:100480000E244FF48046282706E0B5F5004F03D12F
:100490000F244FF400462827BAF1080F06D1032392
:1004A00028222946404600F0EDF812E0BAF10C0F80
:1004B00006D1032348222946404600F0E3F808E02D
:1004C000BAF1100F05D1032304222946404600F05B
:1004D000D9F80121084600F053F92146484600F0BA
:1004E00025F8019600208DF808008DF809A001205C
:1004F0008DF80A0001A8FFF7F5FE8DF800700F20B7
:100500008DF801008DF8024001208DF80300684647
:1005100000F0FCF8BDE8FE8F00080140000C01402F
:1005200000100140001401400018014030B50022C5
:100530008B071C0F0F2303FA04F20B4B8C1053F89C
:1005400024309343084C8D1044F8253023468C10FA
:1005500053F824308C07240F00FA04F42343024C90
:100560008D1044F8253030BD080001402DE9F041E0
:10057000024600250026002000230024002791F8D1
:1005800003C00CF00F0591F803C00CF0100CBCF187
:10059000000F03D091F802C04CEA050591F800C0A5
:1005A000BCF1000F31D0146800202BE04FF0010C9B
:1005B0000CFA00F3B1F800C00CEA03069E4220D109
:1005C00083004FF00F0C0CFA03F7BC4305FA03FC51
:1005D0004CEA040491F803C0BCF1280F06D14FF097
:1005E000010C0CFA00FCC2F814C00AE091F803C038
:1005F000BCF1480F05D14FF0010C0CFA00FCC2F819
:1006000010C0401C0828D1D31460B1F800C0BCF160
:10061000FF0F34DD546800202EE000F1080C4FF08D
:10062000010808FA0CF3B1F800C00CEA03069E4278
:1006300021D183004FF00F0C0CFA03F7BC4305FAED
:1006400003FC4CEA040491F803C0BCF1280F05D167
:1006500000F1080C08FA0CF8C2F8148091F803C0F5
:10066000BCF1480F07D100F1080C4FF0010808FA5F
:100670000CF8C2F81080401C0828CED35460BDE8A6
:10068000F0810000F8B504460D4616461F46114895
:10069000844204D10121042000F072F80EE00E48DB
:1006A000844204D10121082000F06AF806E00B48DA
:1006B000844203D10121102000F062F8ADF800500F
:1006C0008DF803608DF8027069462046FFF74EFFF3
:1006D000F8BD000000080140000C0140001001407E
:1006E00000BFFEE710B50323102251020348FFF7B5
:1006F000C9FF01200249086010BD00000010014040
:10070000B401224200BFFEE77047000070B500212F
:1007100000230F22C47804B3154C246804F4E06469
:10072000C4F5E064210AC1F10403CA40447804FA24
:1007300003F184781440214309010E4C0678A15539
:10074000047804F01F050124AC4005786D11AD005C
:1007500005F1E025C5F8004109E0047804F01F0523
:100760000124AC40044D0678761145F8264070BD52
:100770000CED00E000E400E080E100E070470000E4
:1007800029B1064A92690243044B9A6104E0034A84
:1007900092698243014B9A61704700000010024049
:1007A000704710B500F002F810BD00000CB5002035
:1007B000019000903348006840F48030314908606F
:1007C00000BF3048006800F4003000900198401CE1
:1007D0000190009818B90198B0F5A06FF1D129489F
:1007E000006800F4003010B10120009001E000200A
:1007F00000900098012843D12348006840F0100081
:10080000214908600846006820F003000860084697
:10081000006840F0020008601A48406819494860C2
:100820000846406848600846406840F48060486078
:100830000846406820F47C1048600846406840F450
:10084000E81048600846006840F08070086000BF0B
:100850000C48006800F000700028F9D00948406892
:1008600020F00300074948600846406840F0020055
:10087000486000BF0348406800F00C000828F9D128
:100880000CBD00000010024000200240042808D1E6
:100890004FF0E021096941F004014FF0E0221161BD
:1008A00007E04FF0E021096921F004014FF0E02258
:1008B000116170477047000010B51348006840F0A0
:1008C00001001149086008464068104908400E4977
:1008D0004860084600680E4908400B490860084611
:1008E000006820F4802008600846406820F4FE007C
:1008F00048604FF41F008860FFF753FF4FF000601F
:100900000449086010BD0000001002400000FFF81C
:10091000FFFFF6FE08ED00E010B5002440F225517F
:10092000054800F00DF830B10348001D0088C1B241
:10093000024800F02FF810BD0038014004000020EC
:1009400070B50246002400230025002040F66A16F8
:10095000B14200D100BFC1F3421501F01F030126CF
:1009600006FA03F3012D02D19689334006E0022DE9
:1009700002D1168A334001E0968A33400C120126D8
:1009800006FA04F41688344013B10CB1012000E0DB
:10099000002070BD028983889A420EDC0289838818
:1009A0009A4201D10022028103890268D15402894E
:1009B000521C0281C288521CC280704700BFFEE7F1
:1009C000014600BF7047000010B56FF00400FFF74C
:1009D0005DFF0A4800680A49B0FBF1F00949087058
:1009E0000846007800EB4001C1EBC0104FF6FF71E4
:1009F00001EAC0000449088010BD000090000020FA
:100A000000127A0000000020020000200146114A76
:100A100012884A434FF0E0235A6100229A611A4635
:100A2000126942F001021A6100BF4FF0E022106922
:100A300000F001021AB100F48032002AF5D04FF024
:100A4000E022126922F001024FF0E0231A61002235
:100A50009A61704702000020FFF7B6FFFFF742FEE1
:100A60000323102211020948FFF70CFE0120084958
:100A70000860082241020548FFF77EFC0822202179
:100A80000448FFF779FC00BFFEE70000000C0140BE
:100A9000B081214200080140B80A0008000000208F
:100AA000A40000006C0100085C0B0008A4000020FA
:100AB0004C0A00008801000800000000A40000208B
:100AC0006400000000000000000000000801002099
:100AD0006400000000000000000000006C01002025
:100AE000640000000000000000000000D0010020B1
:100AF000640000000000000000000000340200203C
:100B000064000000000000000000000098020020C7
:100B1000640000000000000000000000FC02002053
:100B200064000000000000000000000060030020DE
:100B30006400000000000000000000000000000051
:100B4000000000000000000000A24A0400000000B5
:0C0B500000000000010203040607080971
:0400000508000131BD
:00000001FF
