:020000040800F2
:100000007005002045010008E1090008B909000851
:10001000DD090008FB060008951400080000000038
:10002000000000000000000000000000C10B0008FC
:10003000FF06000800000000690A0008AD0C000877
:100040005F0100085F0100085F0100085F01000810
:100050005F0100085F0100085F0100085F01000800
:100060005F0100085F0100085F0100085F010008F0
:100070005F0100085F0100085F0100085F010008E0
:100080005F0100085F0100085F0100085F010008D0
:100090005F0100085F0100085F0100085F010008C0
:1000A0005F0100085F0100085F0100085F010008B0
:1000B0005F0100085F0100085F0100085F010008A0
:1000C0005F0100085F0100085F0100085F01000890
:1000D0005F0100089D1200085F0100085F01000831
:1000E0005F0100085F0100085F0100085F01000870
:1000F0005F0100085F0100085F0100085F01000860
:100100005F0100085F0100085F0100085F0100084F
:100110005F0100085F0100085F0100085F0100083F
:100120005F0100085F0100085F0100085F0100082F
:10013000DFF80CD000F0AEFA004800475D1E000862
:10014000700500200648804706480047FEE7FEE7A6
:10015000FEE7FEE7FEE7FEE7FEE7FEE7FEE7FEE777
:10016000BD0C0008310100082DE9FE4F81EA0304AF
:1001700004F0004421F0004100944FF0000B23F004
:10018000004350EA01045ED052EA03045BD0C3F39B
:100190000A54C1F30A552C44A4F2F3340194A0FB91
:1001A0000254C1F3130141F48011C3F3130343F468
:1001B000801301FB024400FB034E840A970A44EAC1
:1001C000815447EA8357A4FB076802958D0A05FB13
:1001D00007854FEA932C04FB0C542705029D4FEA38
:1001E000065847EA1637B5EB08056EEB070C870E85
:1001F000920E47EA811742EA8312A7FB0201B6EB8F
:100200000B0164EB00042B0D43EA0C335E1844EB46
:100210001C50DA465146E7FB0201C5F313044FEACE
:100220000B3343EA14534FEA0432019C43EA0603BA
:10023000A4F10C040294009CCDE900B400F096F8FF
:1002400003B0BDE8F08F00200146F9E70EB5C10FFD
:1002500080EAE0700844CA07002140F233438DE889
:100260000E000A460B4600F081F803B000BDC1F352
:100270000A5210B5C1F3130140F2FF3341F480116B
:100280009A4201DA002010BD40F233439A42A2F2B2
:10029000334203DC524200F04AF810BD904010BDDA
:1002A00030B50B46014600202022012409E021FA46
:1002B00002F59D4205D303FA02F5491B04FA02F543
:1002C0002844151EA2F10102F1DC30BD2DE9F05FDA
:1002D0000546002092469B468846064681464024B5
:1002E0001BE0284641464746224600F020F8534688
:1002F0005A46C01A914110D311461846224600F0C2
:10030000DBF92D1A67EB01084F4622460120002138
:1003100000F0D2F917EB00094E41201EA4F10104B0
:10032000DFDC484631462A464346BDE8F09F202A96
:1003300004DB203A21FA02F00021704721FA02F38F
:10034000D040C2F12002914008431946704710B5D1
:10035000141E73F1000408DA401C41F100019218E8
:100360005B411A4301D120F0010010BD2DE9F04D91
:1003700092469B4611B1B1FA81F202E0B0FA80F2E6
:100380002032904600F098F904460F4640EA0A00F1
:1003900041EA0B0153465A46084313D0114653EA2B
:1003A000010019D0C8F140025046FFF7C0FF0546D2
:1003B0000E4650465946424600F07EF9084305D0A5
:1003C000012004E020463946BDE8F08D00200543B9
:1003D00046EAE0762C4337430A986305E40AA0EB2B
:1003E00008000022FD0A44EA47540A3002D50020E2
:1003F0000146E9E7010510196941DDE908450019E1
:100400006941BDE8F04DA2E72DE9FE4F804681EA43
:100410000300C00F0C46009021F0004123F000457E
:10042000B8EB0200A94105D24046214690461C4641
:100430000B46024623F00040104347D0270DC7F378
:100440000A00C3F30A510290401A019040286BDA67
:10045000C3F3130040F4801B0098924620B10023A0
:10046000D2EB030A63EB0B0B01985946C0F1400233
:10047000504600F021F906460D4650465946019A6D
:1004800000F029F910EB08006141002487EA1152BD
:1004900084EAE7731A4340D0009A62B3019A012AB2
:1004A0004FEA075215DC001B61EB02014FF00042DE
:1004B00002EA0752CDE90042001C41F580113246A4
:1004C0002B46FFF753FF03B0BDE8F08F40462146AF
:1004D000F9E7001B61EB0201001C41F580130018D5
:1004E0005B412018A2F5001747EB030140EAD570E5
:1004F000B6196D4111E06D084FEA360645EAC07540
:100500004FEA0752001B61EB0201001C41F580110C
:1005100049084FEA30000019514132462B4603B0DA
:10052000BDE8F04FFFF713BF009801224000002301
:10053000D0EB020263EBE073009821464FEAE074CF
:10054000B8EB000061EB0401E9E783F000435BE7EF
:1005500081F0004158E72DE9F04D81EA030404F0F1
:10056000004B21F0004514464FF0000A23F00041F3
:1005700050EA050220D054EA01021DD0C5F30A5703
:100580000246C5F31303C1F31300C1F30A5640F446
:10059000801543F48013A7EB0608101BD64608F21B
:1005A000FD3873EB050002D308F1010801E0921851
:1005B0005B41B8F1000F03DA00200146BDE8F08D81
:1005C00000204FF48011064684460EE0171B73EBA3
:1005D000050705D3121B63EB050306434CEA010C28
:1005E00049084FEA300092185B4150EA0107EDD10B
:1005F00052EA030012D082EA040083EA05010843AC
:1006000005D0101BAB4106D20122002306E00022D8
:100610004FF0004302E06FF0010253101AEB0600A6
:100620004CEB085110EB0A0041EB0B01BDE8F04D1B
:10063000FFF78DBEC1F30A52C1F3130140F2FF333D
:1006400041F480119A4202DA00200146704740F2DC
:1006500033439A42A2F2334202DC5242FFF767BEB2
:1006600000F02AB830B5041E71F1000404DB4FF02D
:100670000044404264EB0101141E73F1000405DBE9
:100680001C464FF00043524263EB0403994208BFFB
:10069000904230BD064C074D06E0E06840F0010393
:1006A00094E8070098471034AC42F6D3FFF744FDB6
:1006B000FC1F00081C200008202A04DB203A00FA56
:1006C00002F1002070479140C2F1200320FA03F3A9
:1006D000194390407047202A06DBCB17203A41FA95
:1006E00002F043EAE07306E041FA02F3D040C2F1BF
:1006F0002002914008431946704700BFFEE770474B
:100700002DE9F041024600250026002000230024A8
:10071000002791F803C00CF00F0591F803C00CF00E
:10072000100CBCF1000F03D091F802C04CEA050593
:1007300091F800C0BCF1000F31D0146800202BE00C
:100740004FF0010C0CFA00F3B1F800C00CEA0306FC
:100750009E4220D183004FF00F0C0CFA03F7BC43EC
:1007600005FA03FC4CEA040491F803C0BCF1280F1D
:1007700006D14FF0010C0CFA00FCC2F814C00AE0DC
:1007800091F803C0BCF1480F05D14FF0010C0CFAF1
:1007900000FCC2F810C0401C0828D1D31460B1F886
:1007A00000C0BCF1FF0F34DD546800202EE000F1E2
:1007B000080C4FF0010808FA0CF3B1F800C00CEA7D
:1007C00003069E4221D183004FF00F0C0CFA03F771
:1007D000BC4305FA03FC4CEA040491F803C0BCF1E5
:1007E000280F05D100F1080C08FA0CF8C2F81480A3
:1007F00091F803C0BCF1480F07D100F1080C4FF08D
:10080000010808FA0CF8C2F81080401C0828CED362
:100810005460BDE8F0810000F8B504460D46164668
:100820001F461148844204D10121042000F03EF902
:100830000EE00E48844204D10121082000F036F970
:1008400006E00B48844203D10121102000F02EF96C
:10085000ADF800508DF803608DF8027069462046AF
:10086000FFF74EFFF8BD000000080140000C0140FA
:10087000001001402DE9F0470020194908800121AE
:100880001748243800F0D9FA00BF01211448243851
:1008900000F0E8FB0028F8D000211148243800F0CF
:1008A000CCFA01210E48243800F0C4FA0C48243850
:1008B00000F0D5FB81460A48243800F0CDFBA9EBB7
:1008C00000042046FFF7C2FC0546064A064BFFF728
:1008D0004BFC0746FFF7CBFC80B2BDE8F087000079
:1008E000240400400E2DB29DEFA7C63F10B590B076
:1008F0000121042000F0DAF80121082000F0D6F8E8
:100900000121022000F0B2F801F088FA0BA800F0F3
:10091000EDF827490B98B0FBF1F0401E84B2254852
:1009200000F0A6FAADF820400020ADF822004FF606
:10093000FF70ADF824000020ADF8260008A91D487E
:1009400000F05AFC04A800F0E7FB6020ADF81000AE
:100950000120ADF812000F20ADF816000020ADF810
:10096000180004A9134800F087FB0020ADF804002C
:10097000ADF806000120ADF808000020ADF80A002F
:10098000ADF80C0001A90B4800F0D0FB502109483C
:1009900000F00AFC8021074800F00FFC0121054807
:1009A00000F057FA0121034800F044FA10B010BDDE
:1009B00040420F000004004000BFFEE710B50323D3
:1009C000102251020348FFF727FF01200249086067
:1009D00010BD000000100140B401224200BFFEE73C
:1009E0007047000070B5002100230F22C47804B3C3
:1009F000154C246804F4E064C4F5E064210AC1F1F4
:100A00000403CA40447804FA03F184781440214373
:100A100009010E4C0678A155047804F01F05012445
:100A2000AC4005786D11AD0005F1E025C5F8004139
:100A300009E0047804F01F050124AC40044D067859
:100A4000761145F8264070BD0CED00E000E400E0B2
:100A500080E100E002490143024A11607047000052
:100A60000000FA050CED00E07047000029B1064ACD
:100A7000D2690243044BDA6104E0034AD26982433B
:100A8000014BDA61704700000010024029B1064AAC
:100A900012690243044B1A6104E0034A126982435B
:100AA000014B1A61704700000010024029B1064A4C
:100AB00092690243044B9A6104E0034A92698243BB
:100AC000014B9A61704700000010024029B1064AAC
:100AD000D2680243044BDA6004E0034AD2688243DE
:100AE000014BDA60704700000010024030B5002171
:100AF0000022002400232D4D6D6805F00C0121B16A
:100B0000042905D0082923D105E0294D056022E0FC
:100B1000274D05601FE0254D6D6805F47012234DCB
:100B20006D6805F48034022505EB92421CB9214D15
:100B3000554305600BE01D4D6D6805F400351DB192
:100B40001C4D5543056002E0194D5543056002E018
:100B5000174D056000BF00BF144D6D6805F0F00132
:100B60000909154D6B5C0568DD4045600F4D6D68EA
:100B700005F4E061090A104D6B5C4568DD40856055
:100B80000A4D6D6805F46051C90A0B4D6B5C4568F0
:100B9000DD40C560054D6D6805F44041890B074D8A
:100BA0006B5CC568B5FBF3F5056130BD0010024014
:100BB00000127A0000093D001C0000202C000020DB
:100BC000704710B500F002F810BD00000CB5002011
:100BD000019000903348006840F48030314908604B
:100BE00000BF3048006800F4003000900198401CBD
:100BF0000190009818B90198B0F5A06FF1D129487B
:100C0000006800F4003010B10120009001E00020E5
:100C100000900098012843D12348006840F010005C
:100C2000214908600846006820F003000860084673
:100C3000006840F0020008601A484068194948609E
:100C40000846406848600846406840F48060486054
:100C50000846406820F47C1048600846406840F42C
:100C6000E81048600846006840F08070086000BFE7
:100C70000C48006800F000700028F9D0094840686E
:100C800020F00300074948600846406840F0020031
:100C9000486000BF0348406800F00C000828F9D104
:100CA0000CBD000000100240002002400248006815
:100CB000401C0149086070471800002010B5134817
:100CC000006840F00100114908600846406810497A
:100CD00008400E494860084600680E4908400B4924
:100CE00008600846006820F48020086008464068D4
:100CF00020F4FE0048604FF41F008860FFF761FF9A
:100D00004FF000600449086010BD00000010024070
:100D10000000FFF8FFFFF6FE08ED00E0F0B50C461E
:100D2000154600220021068C4FF6FE773E400684D1
:100D3000028B018C4FF60C7632407E1C06EA0316BD
:100D40002E433243104EB0420ED0104EB0420BD064
:100D5000B0F1804F08D00E4EB04205D00D4EB042DB
:100D600002D00D4EB04206D14FF6FD76314044F030
:100D70000106314305E04FF6F576314044F00106B7
:100D8000314302830184F0BD002C01400034014056
:100D90000004004000080040000C0040F0B50C4684
:100DA0001546002200210026078C4FF6EF7C07EA4B
:100DB0000C070784028B018C4FF6FF7707EA0416B5
:100DC00040F6FF473A404FF6FF7707EA03373A43CA
:100DD0004FF6FF7707EA05273A43114FB8420ED086
:100DE000104FB8420BD0B0F1804F08D00E4FB84230
:100DF00005D00E4FB84202D00D4FB84206D14FF683
:100E0000DF77394046F01007394305E04FF65F774A
:100E1000394044F01007394302830184F0BD0000DB
:100E2000002C014000340140000400400008004054
:100E3000000C0040CA430282704721B1028842F090
:100E40000102028004E002884FF6FE731A4002801D
:100E5000704731B1B0F8442042F40042A0F8442079
:100E600005E0B0F84420C2F30E02A0F84420704719
:100E700010B504466848844208D10121C014FFF728
:100E800025FE0021E014FFF721FEC4E0B4F1804FFD
:100E900008D101210846FFF7F9FD00210120FFF7E5
:100EA000F5FDB8E05D48844208D101210220FFF73A
:100EB000EDFD00210220FFF7E9FDACE05848844237
:100EC00008D101210420FFF7E1FD00210420FFF7F4
:100ED000DDFDA0E05348844208D101210820FFF73E
:100EE000D5FD00210820FFF7D1FD94E04E48844253
:100EF00008D101211020FFF7C9FD00211020FFF7C4
:100F0000C5FD88E04948844208D101212020FFF72F
:100F1000BDFD00212020FFF7B9FD7CE0444884425C
:100F200008D101214014FFF7D1FD00216014FFF723
:100F3000CDFD70E03F48844209D10121C804FFF78C
:100F4000C5FD00214FF40020FFF7C0FD63E03A48E3
:100F5000844209D101210805FFF7B8FD00214FF4B3
:100F60008010FFF7B3FD56E03448844209D10121D7
:100F70004805FFF7ABFD00214FF40010FFF7A6FD79
:100F800049E02F48844208D101214020FFF77EFD2F
:100F900000214020FFF77AFD3DE02A48844208D135
:100FA00001218020FFF772FD00218020FFF76EFDF8
:100FB00031E02548844208D101218015FFF766FD04
:100FC0000021A015FFF762FD25E02048844209D1E9
:100FD00001210804FFF77AFD00214FF48030FFF76C
:100FE00075FD18E01A48844209D101214804FFF731
:100FF0006DFD00214FF40030FFF768FD0BE0154850
:10100000844208D101218804FFF760FD00214FF4DC
:101010008020FFF75BFD10BD002C01400004004064
:1010200000080040000C0040001000400014004088
:1010300000340140004C0140005001400054014088
:1010400000180040001C004000200040004001400B
:1010500000440140004801400146888E7047014627
:10106000088F704702460020138A0B400BB1012005
:1010700000E000207047000070B50024002200232B
:10108000058C4FF6FF6635400584028C8388848B7F
:101090004FF68F752C404FF6FC752C400D882C4375
:1010A0004FF6FF552A400D894FF6FF7606EA0525D3
:1010B0002A434D8806EA05252A43154DA84202D049
:1010C000144DA8421DD14FF2FF752A404D894FF6AD
:1010D000FF7606EA05252A434FF6FF352A408D881C
:1010E00006EA05252A434EF6FF752B404DF6FF759F
:1010F0002B408D8906EA05152B43CD8906EA051597
:101100002B4383808483CD888587028470BD000053
:10111000002C014000340140002101804180818089
:10112000C180018141818181C18170472DE9F041F8
:1011300005460C4600260127608808B9022600E013
:101140000026A088012801D1022700E0012720887D
:10115000A0B92389A28861882846FFF7DFFDE188CE
:10116000284600F033F823893A4631462846FFF7EF
:1011700015FEE188284600F032F813E02389A288A2
:1011800061882846FFF70AFEE188284600F027F824
:1011900023893A4631462846FFF7C0FDE1882846B4
:1011A00000F014F8BDE8F0810A46002101894FF6ED
:1011B0008F73194011430181704702894FF67F7385
:1011C0001A40028102890A4302817047028B4FF65E
:1011D000F3731A400283028B0A4302837047028B27
:1011E0004FF2FF331A400283028B4FF6FF7303EA7C
:1011F00001231A4302837047002202881D4B984244
:101200000ED01D4B98420BD0B0F1804F08D01B4B35
:10121000984205D01A4B984202D01A4B984204D1FA
:101220004FF68F731A404B881A43174B984207D0DA
:10123000164B984204D04FF6FF431A40CB881A430E
:1012400002808B8883850B8803850A4B98420BD0DC
:10125000094B984208D00E4B984205D00D4B98424E
:1012600002D00D4B984201D10B7A03860123838271
:1012700070470000002C0140003401400004004091
:1012800000080040000C0040001000400014004026
:1012900000400140004401400048014010B540F2C8
:1012A0002551064800F027F830B10448001D008899
:1012B000C1B2034800F0DEF810BD00000038014064
:1012C0000000002021B1828942F40052828104E0B2
:1012D00082894DF6FF731A408281704702460020D2
:1012E000B1F5007F00D100BF13880B400BB1012086
:1012F00000E00020704770B502460024002300255E
:10130000002040F66A16B14200D100BFC1F3421579
:1013100001F01F03012606FA03F3012D02D196897D
:10132000334006E0022D02D1168A334001E0968A4E
:1013300033400C12012606FA04F41688344013B127
:101340000CB1012000E0002070BDF0B50346002480
:1013500000260025002040F66A17B94200D100BFE0
:101360001846C1F3421401F01F06012707FA06F5DB
:10137000012C01D10C3004E0022C01D1103000E02E
:1013800014301AB107682F43076002E00768AF43C3
:101390000760F0BD2DE9F04786B005460E460024F3
:1013A000A24600BFA1460027B08900B100BF2F466A
:1013B0002C8A4CF6FF700440F08804432C82AC89E0
:1013C0004EF6F3100440B088318908437189084310
:1013D0000443AC81AC8A4FF6FF400440B08904431B
:1013E000AC8201A8FFF782FB1F48874202D1DDF8DB
:1013F00010A001E0DDF80CA0A88900F4004040B185
:101400000AEBCA0000EB0A1031684900B0FBF1F8A2
:1014100007E00AEBCA0000EB0A1031688900B0FB54
:10142000F1F86420B8FBF0F004012009642101FB0D
:101430001089A88900F4004040B1322000EBC900B7
:10144000B0FBF1F000F00700044308E0322000EBAD
:1014500009106421B0FBF1F000F00F0004432C816F
:1014600006B0BDE8F087000000380140C1F3080273
:1014700082807047427903799A4201D100224271F9
:1014800043790268D1544279521C4271C279521C8C
:10149000C271704700BFFEE70FB4084B10B504A936
:1014A00002AA039800F0DEF8044602A9002000F02A
:1014B00070FC204610BC5DF814FB0000931D000872
:1014C00002E008C8121F08C1002AFAD1704770470D
:1014D000002001E001C1121F002AFBD1704700006B
:1014E0002DE9FF5F82B00021DDE90430020DDDF857
:1014F00040B0034318D044F61050A2F2FF324243EA
:101500001514119801281FD0A5EB0B00401C5FEAB1
:10151000000A4FF000064E4FDFF83891B0465046B3
:1015200015D5CAF1000413E0119801244AA301283B
:1015300001D16FEA0B010298119AC0E90031C0E9AC
:10154000024206B0BDE8F09FCBF10000DFE70446A1
:101550000021404A491842EB0450CDE9001012E046
:10156000E00707D032463B4640464946FEF7FCFDC1
:101570008046894632463B4610461946FEF7F4FD42
:1015800006460F466410002CEAD1DDE90401DDE9CE
:101590000023BAF1000F06DAFEF7E6FD42464B469D
:1015A000FEF7E2FD05E0FEF7D6FF42464B46FEF7AA
:1015B000D2FF04460E460022284BFFF753F803D80B
:1015C0004FF0FF30014607E00022254B2046314610
:1015D000FEF71AFFFFF72EF8102409E0002C0ADBB3
:1015E0000A220023FEF772FE039B30321A55641E56
:1015F00050EA0102F2D1641C039AC4F111031444AD
:10160000119A012A03D0012208430DD10AE00843B0
:1016100004D000204FF0110B119072E7A3EB0B05E3
:101620006D1E0DE05B4504DD4FF0000205F1010584
:1016300004E003DA4FF00002A5F10105002AECD026
:1016400002981199C0E90231C0E9004579E700002C
:10165000000014400000F03F300000000000F043A4
:101660000000E03F2DE9FF4F95B09B4689460646B6
:1016700000250FE2252877D100242746F84A0121CA
:10168000059400E0044316F8013F203B01FA03F003
:101690001042F7D130782A2811D06FF02F0330781C
:1016A000A0F13002092A16D8059A44F0020402EB90
:1016B000820203EB42021044761C0590EFE759F8D2
:1016C000042B0592002A03DA504244F4005405909A
:1016D00044F00204761C30782E2816D116F8010F3B
:1016E00044F004042A280DD06FF02F023078A0F1C6
:1016F0003003092B09D807EB870302EB4303C71814
:10170000761CF3E759F8047B761C30786C280FD0F0
:1017100006DC4C2817D068280DD06A2814D104E0C4
:10172000742810D07A280FD10DE044F400140AE098
:1017300044F4801401E044F440147278824202D1EF
:1017400004F58014761C761C307866280BD013DCE8
:10175000582877D009DC002875D04528F6D04628CF
:10176000F4D047281AD19DE118E0632835D06428C9
:1017700079D0652812D195E1702873D008DC6728EC
:10178000F1D069286FD06E280DD06F2806D1B5E052
:1017900073282CD0752875D0782874D05A4617999C
:1017A00090476D1C75E1C4F30250022809D003284C
:1017B0000DD0D9F8001004280DD00D6009F10409EE
:1017C00067E1D9F80010EA17C1E90052F6E7D9F845
:1017D00000100D80F2E70D70F0E719F8041B8DF88A
:1017E000001000208DF80100EA46012003E059F8BE
:1017F00004AB4FF0FF3061074FF0000102D40DE061
:1018000008F101018846B9420FDA8045F8DB1AF881
:1018100008100029F4D108E008F10101884681424E
:10182000FADB1AF808100029F6D105985B46A0EB00
:10183000080721463846179A00F094FA284400EB2E
:10184000080507E04DE029E10DE01AF8010B5A46C2
:1018500017999047B8F10108F7D25B462146384600
:10186000179A13E142E00A220092C4F302524FF0A9
:10187000000A022A08D059F804CB032A4FEAEC7177
:101880000AD00DE029E02AE009F1070121F0070262
:10189000F2E802C1914609E00FFA8CFC4FEAEC71C4
:1018A000042A03D14FFA8CFC4FEAEC71002907DAC5
:1018B0000A460021DCF1000C61EB02012D2202E05E
:1018C000220504D52B228DF80420012203E0E20733
:1018D00001D02022F7E7904659E00A2102E01022C9
:1018E0000DE010214FF0000A00910BE010224FF0A4
:1018F000000A44F004040827009203E008224FF095
:10190000000A0092C4F30252022A05D059F804CB0F
:101910000021032A08D009E009F1070121F007029C
:10192000F2E802C1914605E01FFA8CFC042A01D1BD
:101930000CF0FF0C4FF00008220728D5702806D0C5
:10194000009B83F0100353EA0A0305D00EE0402207
:101950008DF80420012208E05CEA010206D0302262
:101960008DF804208DF8050002229046009B83F03C
:10197000080353EA0A030AD15CEA010201D16207B3
:1019800005D530228DF804204FF001087F1E58281D
:1019900004D034A003900EA802900DE036A0F9E721
:1019A00053466046009AFEF791FC84460398825C99
:1019B0000298401E029002705CEA0100F0D1029889
:1019C00006A9081A00F1200A600702D524F4803421
:1019D00000E00127574502DDA7EB0A0000E00020E8
:1019E00000EB0A01009005984144401A0590E0037D
:1019F00006D45B462146179A059800F0B3F90544D2
:101A0000002706E001A85A46C05D179990476D1C53
:101A10007F1C4745F6DBE0030CD55B462146179A51
:101A2000059800F09FF9054404E030205A461799C4
:101A300090476D1C0099481E00900029F5DC08E0D5
:101A4000029802995A460078491C029117999047CA
:101A50006D1CBAF10001AAF1010AF1DC65E1000098
:101A60000928010030313233343536373839616274
:101A70006364656600000000303132333435363738
:101A800038394142434445460000000000F058F90F
:101A90000544761C307800287FF4ECAD19B0284658
:101AA000BDE8F08F620700D4062709F1070222F093
:101AB000070CFCE80223E14603F000485FEA080C4B
:101AC00002D00FF2702C0DE05FEA045C02D50FF239
:101AD000682C07E05FEAC47C02D00FF2602C01E0C2
:101AE000AFF2700C4FF0FF3823F00043CDF850C038
:101AF00065280CD006DC452809D046281DD047288B
:101B00003DD13DE0662818D067287ED138E000211D
:101B1000112F01DB112000E0781CCDE9000106A99E
:101B20000EA8FFF7DDFCDDE90F010E9A03910021FD
:101B3000009207F1010A04914DE04FF00040009738
:101B4000CDE9011006A90EA8FFF7CAFCDDE90F02D6
:101B500003920E9B11990022DDF80CA000930492D1
:101B600011B9791C00EB010AB7EB0A0004D4C0F1EB
:101B7000FF3007F1010A0490AAEB0700019044E04E
:101B8000012F00DA01270021112F01DD112000E0D3
:101B90003846CDE9000106A90EA8FFF7A1FCDDE952
:101BA0000F010E9A0391002104910092BA46210779
:101BB0000CD40399514500DA8A46BAF1010F05DDCC
:101BC000009AAAF10101515C302908D0B84202DA2A
:101BD00010F1040F06DA0121CDE9011015E0AAF198
:101BE0000101E9E7002805DC049901440491AAEB0E
:101BF000000102E0411C514500DD8A460499401A6B
:101C0000401C01904FF000400290200704D401983E
:101C1000504501DBCDF8048000208DF84F0002987C
:101C20000DF14F07B0F1004F25D02B200E900298F8
:101C30004FF0020800280CDA404202902D200E904E
:101C400007E00A210298FEF72BFB3031029007F8DB
:101C5000011DB8F10001A8F10108F2DC029800288A
:101C6000EFD1791E0E980870307800F0200040F017
:101C7000450007F8020D12A8C01B00F107081498D0
:101C8000007800B1012000EB0A01019801EBE0713E
:101C900005984144401A401E0590E00306D45B4677
:101CA0002146179A059800F05DF8054414980078CD
:101CB00018B15A46179990476D1CE00324D55B462E
:101CC0002146179A059800F04DF805441CE0049849
:101CD000002807DBDDE90301884203DD0098405C52
:101CE000179901E0179930205A469047049805F15A
:101CF0000105401C04900198401E019004D12E2043
:101D00005A46179990476D1CBAF10001AAF1010AD1
:101D1000DDDC05E017F8010B5A46179990476D1C5A
:101D2000B8F10001A8F10108F4DC5B462146179ADE
:101D30000598ABE62D0000002B00000020000000FD
:101D40002DE9F041044600251E461746880404D4B8
:101D500005E039462020B0476D1C641EF9D52846A1
:101D6000BDE8F0812DE9F041044600251E4690466D
:101D7000C80301D5302700E02027880404D505E0FA
:101D800041463846B0476D1C641EF9D52846BDE86B
:101D9000F0810A68531C0B601070704770B54FF4E7
:101DA0004070FEF757FE144800684FF47A72B0FB9B
:101DB000F2F1B1F1807F00D31DE021F07F40401EA1
:101DC0004FF0E022506150170F22002807DA130766
:101DD0001D0E0A4B00F00F04241F1D5503E01307CE
:101DE0001C0E074B1C5400BF00204FF0E0229061F6
:101DF0000720106100BF70BD3000002018ED00E02A
:101E000000E400E0044A1268111800BF024A126898
:101E10008A42FBD3704700001800002008B501205B
:101E2000ADF8000003208DF8020018208DF80300A3
:101E300069460848FEF764FCC020ADF800000320A6
:101E40008DF8020004208DF8030069460248FEF771
:101E500057FC08BD000C014000080140FFF79EFF41
:101E6000FEF7ACFD4FF416520021084800F042F88E
:101E7000FEF73CFD09E0FEF7FDFC04462146034861
:101E800000F016F86420FFF7BDFFF4E700380140CA
:101E900070B504460D4629462046FFF7E7FA00BF15
:101EA00080212046FFF71AFA0028F9D070BD000003
:101EB00030B599B005460C46224605A16846FFF7A5
:101EC000EBFA6946034800F007F819B030BD00008E
:101ED00025640A000038014070B505460C4604E050
:101EE00014F8011B2846FFF7D3FF20780028F7D10C
:101EF00070BD0000F0B585B004460D4617460121BF
:101F00000846FEF7D3FD3848844205D101218803F5
:101F1000FEF7CCFD252610E03448844205D101218E
:101F20004804FEF7A3FD262607E03148844204D189
:101F300001218804FEF79AFD27266DB90323182294
:101F40004FF400712B48FEF767FC032304221102B3
:101F50002848FEF761FC1CE0012D0CD10323182258
:101F600004212448FEF758FC0323042208212148B9
:101F7000FEF752FC0DE0022D0BD10323182269025B
:101F80001D48FEF749FC0323042251021A48FEF7BC
:101F900043FC01970020ADF80800ADF80A00ADF849
:101FA0000C00ADF810000C20ADF80E008DF80060AC
:101FB00000208DF801008DF8020001208DF803004B
:101FC0006846FEF70FFD01A92046FFF7E3F901225D
:101FD00040F225512046FFF7B8F901212046FFF7CE
:101FE00071F905B0F0BD0000003801400044004028
:101FF0000048004000080140000C01401C2000087F
:102000000000002044000000C01400086020000808
:10201000440000202C050000D014000844000020DB
:1020200064000000A8000020640000000C010020F3
:102030006400000000000000000000000102030432
:1020400001020304060708090204060800A24A0464
:102050000000000000000000010203040607080958
:0400000508000131BD
:00000001FF
