:020000040800F2
:10000000000B0020CD010008B9040008910400088D
:10001000B504000819030008F50B000800000000F3
:10002000000000000000000000000000450600087D
:100030001D030008000000002D05000859070008F6
:10004000E7010008E7010008E7010008E7010008F0
:10005000E7010008E7010008E7010008E7010008E0
:10006000E7010008E7010008E7010008E7010008D0
:10007000E7010008E7010008E7010008E7010008C0
:10008000E7010008E7010008E7010008E7010008B0
:10009000E7010008E7010008E7010008E7010008A0
:1000A000E7010008E7010008E7010008E701000890
:1000B000E7010008E7010008E7010008E701000880
:1000C000E7010008E7010008E7010008E701000870
:1000D000E7010008BD070008E7010008E701000884
:1000E000E7010008E7010008E7010008E701000850
:1000F000E7010008E7010008E7010008E701000840
:10010000E7010008E7010008E7010008E70100082F
:10011000E7010008E7010008E7010008E70100081F
:10012000E7010008E7010008E7010008E70100080F
:1001300000F002F800F03AF80AA090E8000C8244BF
:100140008344AAF10107DA4501D100F02FF8AFF29C
:10015000090EBAE80F0013F0010F18BFFB1A43F0A5
:1001600001031847300B0000500B0000103A24BF69
:1001700078C878C1FAD8520724BF30C830C144BF0C
:1001800004680C607047000000230024002500264E
:10019000103A28BF78C1FBD8520728BF30C148BFEA
:1001A0000B6070471FB51FBD10B510BD00F06EF895
:1001B0001146FFF7F7FF00F053FD00F0A0F803B47D
:1001C000FFF7F2FF03BC00F017FD0000094880476D
:1001D00009480047FEE7FEE7FEE7FEE7FEE7FEE729
:1001E000FEE7FEE7FEE7FEE704480549054A064B41
:1001F000704700005D07000831010008000500207D
:10020000000B0020000700200007002070470000BE
:100210000FB4044910B503AA029800F009F810BC05
:100220005DF814FB980000207047704770477047D6
:10023000074B70B50D467B4400F011F80446284684
:1002400000F020F810B14FF0FF3070BD204670BDB7
:100250000B0A000001694A1C02610878704700B56A
:100260008FB0CDE901310021059105497944CDE9EF
:1002700003101146684600F02EF80FB000BD0000D4
:10028000E5FFFFFF007B00F080007047754600F03F
:100290003FF8AE4605006946534620F00700854604
:1002A00018B020B5FFF7A0FFBDE820404FF00006D2
:1002B0004FF000074FF000084FF0000B21F007014E
:1002C000AC46ACE8C009ACE8C009ACE8C009ACE891
:1002D000C0098D4670472DE9F04106460024D6E955
:1002E0000170F5688046304603E04146B847641C1B
:1002F0003046A8470028F8D12046BDE8F08110B567
:100300000446AFF300802046BDE81040FFF757BF1A
:1003100000487047A004002000BFFEE770472DE9A9
:10032000F04102460025002600200023002400277B
:1003300091F803C00CF00F0591F803C00CF0100CFD
:10034000BCF1000F03D091F802C04CEA050591F80A
:1003500000C0BCF1000F31D0146800202BE04FF03A
:10036000010C0CFA00F3B1F800C00CEA03069E423F
:1003700020D183004FF00F0C0CFA03F7BC4305FAB1
:1003800003FC4CEA040491F803C0BCF1280F06D129
:100390004FF0010C0CFA00FCC2F814C00AE091F80E
:1003A00003C0BCF1480F05D14FF0010C0CFA00FC62
:1003B000C2F810C0401C0828D1D31460B1F800C0A6
:1003C000BCF1FF0F34DD546800202EE000F1080C72
:1003D0004FF0010808FA0CF3B1F800C00CEA03066C
:1003E0009E4221D183004FF00F0C0CFA03F7BC435F
:1003F00005FA03FC4CEA040491F803C0BCF1280F91
:1004000005D100F1080C08FA0CF8C2F8148091F834
:1004100003C0BCF1480F07D100F1080C4FF00108F0
:1004200008FA0CF8C2F81080401C0828CED354609B
:10043000BDE8F081F8B504460D4616461F46114842
:10044000844204D10121042000F082F80EE00E481D
:10045000844204D10121082000F07AF806E00B481C
:10046000844203D10121102000F072F8ADF8005051
:100470008DF803608DF8027069462046FFF74FFF44
:10048000F8BD000000080140000C014000100140D0
:1004900000BFFEE710B50323102251020348FFF707
:1004A000C9FF01200249086010BD00000010014092
:1004B000B401224200BFFEE77047000070B5002182
:1004C00000230F22C47804B3154C246804F4E064BC
:1004D000C4F5E064210AC1F10403CA40447804FA77
:1004E00003F184781440214309010E4C0678A1558C
:1004F000047804F01F050124AC4005786D11AD00AF
:1005000005F1E025C5F8004109E0047804F01F0575
:100510000124AC40044D0678761145F8264070BDA4
:100520000CED00E000E400E080E100E07047000036
:1005300029B1064AD2690243044BDA6104E0034A56
:10054000D2698243014BDA6170470000001002401B
:1005500029B1064A92690243044B9A6104E0034AB6
:1005600092698243014B9A6170470000001002407B
:1005700030B500210022002400232D4D6D6805F0C8
:100580000C0121B1042905D0082923D105E0294D0A
:10059000056022E0274D05601FE0254D6D6805F4DC
:1005A0007012234D6D6805F48034022505EB9242EC
:1005B0001CB9214D554305600BE01D4D6D6805F4D8
:1005C00000351DB11C4D5543056002E0194D5543E2
:1005D000056002E0174D056000BF00BF144D6D6857
:1005E00005F0F0010909154D6B5C0568DD404560BB
:1005F0000F4D6D6805F4E061090A104D6B5C4568AC
:10060000DD4085600A4D6D6805F46051C90A0B4DE7
:100610006B5C4568DD40C560054D6D6805F4404183
:10062000890B074D6B5CC568B5FBF3F5056130BD03
:100630000010024000127A0000093D000000002076
:1006400010000020704710B500F002F810BD000047
:100650000CB50020019000903348006840F48030D1
:100660003149086000BF3048006800F40030009055
:100670000198401C0190009818B90198B0F5A06F3E
:10068000F1D12948006800F4003010B10120009039
:1006900001E0002000900098012843D12348006821
:1006A00040F01000214908600846006820F003006F
:1006B00008600846006840F0020008601A48406878
:1006C000194948600846406848600846406840F458
:1006D000806048600846406820F47C104860084606
:1006E000406840F4E81048600846006840F08070B8
:1006F000086000BF0C48006800F000700028F9D0C6
:100700000948406820F003000749486008464068EF
:1007100040F00200486000BF0348406800F00C0051
:100720000828F9D10CBD0000001002400020024052
:10073000042808D14FF0E021096941F004014FF08D
:10074000E022116107E04FF0E021096921F0040186
:100750004FF0E022116170477047000010B5134858
:10076000006840F0010011490860084640681049DF
:1007700008400E494860084600680E4908400B4989
:1007800008600846006820F4802008600846406839
:1007900020F4FE0048604FF41F008860FFF753FF0D
:1007A0004FF000600449086010BD000000100240D6
:1007B0000000FFF8FFFFF6FE08ED00E010B5002492
:1007C00040F22551054800F019F830B10348001DEA
:1007D0000088C1B2024800F0CDF810BD00380140D9
:1007E0001800002021B1828942F40052828104E085
:1007F00082894DF6FF731A408281704770B50246B8
:10080000002400230025002040F66A16B14200D1E2
:1008100000BFC1F3421501F01F03012606FA03F3DE
:10082000012D02D19689334006E0022D02D1168AAD
:10083000334001E0968A33400C12012606FA04F494
:100840001688344013B10CB1012000E0002070BDC7
:10085000F0B50346002400260025002040F66A1764
:10086000B94200D100BF1846C1F3421401F01F067F
:10087000012707FA06F5012C01D10C3004E0022C07
:1008800001D1103000E014301AB107682F4307601F
:1008900002E00768AF430760F0BD00002DE9F047B4
:1008A00086B005460E460024A24600BFA14600279A
:1008B000B08900B100BF2F462C8A4CF6FF7004406F
:1008C000F08804432C82AC894EF6F3100440B088C3
:1008D00031890843718908430443AC81AC8A4FF6DF
:1008E000FF400440B0890443AC8201A8FFF740FEFA
:1008F0001F48874202D1DDF810A001E0DDF80CA00E
:10090000A88900F4004040B10AEBCA0000EB0A10CD
:1009100031684900B0FBF1F807E00AEBCA0000EBD0
:100920000A1031688900B0FBF1F86420B8FBF0F0E0
:1009300004012009642101FB1089A88900F400400A
:1009400040B1322000EBC900B0FBF1F000F007002D
:10095000044308E0322000EB09106421B0FBF1F001
:1009600000F00F0004432C8106B0BDE8F0870000C2
:1009700000380140028983889A420EDC028983880C
:100980009A4201D10022028103890268D15402896E
:10099000521C0281C288521CC2807047014600204E
:1009A000064A914200D108E0054A914201D1012056
:1009B00003E0044A914200D1022070470038014010
:1009C0000044004000480040F0B587B005460C46A2
:1009D000174601210846FFF7BBFD7F48854205D138
:1009E00001218803FFF7B4FD252610E07B488542EE
:1009F00005D101214804FFF79BFD262607E0784832
:100A0000854204D101218804FFF792FD2726ECB925
:100A100001210420FFF79CFD4FF40070ADF8180091
:100A200003208DF81A0018208DF81B0006A96D48C8
:100A3000FFF775FC4FF48060ADF8180004208DF8C6
:100A40001B0006A96748FFF76AFC97E0012C1BD141
:100A500001210820FFF77CFD4020ADF8180003209D
:100A60008DF81A0018208DF81B0006A95E48FFF7C4
:100A700056FC8020ADF8180004208DF81B0006A954
:100A80005948FFF74CFC79E0022C1BD101210420CE
:100A9000FFF75EFD0420ADF8180003208DF81A0062
:100AA00018208DF81B0006A94E48FFF738FC0820D7
:100AB000ADF8180004208DF81B0006A94948FFF77F
:100AC0002EFC5BE0032C1CD101212020FFF740FD10
:100AD0002020ADF8180003208DF81A0018208DF89A
:100AE0001B0006A94148FFF71AFC4FF48060ADF8DF
:100AF000180004208DF81B0006A93C48FFF70FFCE6
:100B00003CE0042C1BD101210820FFF721FD20022D
:100B1000ADF8180003208DF81A0018208DF81B007E
:100B200006A93148FFF7FBFB6002ADF8180004206E
:100B30008DF81B0006A92C48FFF7F1FB1EE0052CE1
:100B40001CD101211020FFF703FD4FF48060ADF8A8
:100B5000180003208DF81A0018208DF81B0006A934
:100B60002348FFF7DCFB4FF40060ADF818000420C9
:100B70008DF81B0006A91E48FFF7D1FB8DF8046015
:100B800003208DF805002846FFF708FF8DF80600C2
:100B900001208DF8070001A8FFF790FC02970020C4
:100BA000ADF80C00ADF80E00ADF81000ADF8140073
:100BB0000C20ADF8120002A92846FFF76FFE0122B3
:100BC00040F225512846FFF743FE01212846FFF752
:100BD00009FE07B0F0BD00000038014000440040AD
:100BE0000048004000080140000C01400014014092
:100BF0000010014000BFFEE7014600BF7047000043
:100C000010B56FF00400FFF793FD0A4800680A4929
:100C1000B0FBF1F0094908700846007800EB40018C
:100C2000C1EBC0104FF6FF7101EAC0000449088013
:100C300010BD0000A400002000127A001400002063
:100C40001600002000BF054A128802F04002002A68
:100C5000F9D0C2B2014B1B1D1A8070470038014009
:100C6000FFF718FCFFF7CCFF4FF4E13200210448F6
:100C7000FFF7AAFE03A0FFF7CBFA00BFFEE70000D4
:100C800000380140544553542055534152540D0AE5
:100C900000000000B40C000800000020B8000000B4
:100CA0006C0100086C0D0008B8000020480A000024
:100CB000880100080000000001020304010203048F
:100CC000060708090204060800000000B80000201A
:100CD0006400000000000000000000001C01002073
:100CE00064000000000000000000000080010020FF
:100CF000640000000000000000000000E40100208B
:100D00006400000000000000000000004802002015
:100D1000640000000000000000000000AC020020A1
:100D2000640000000000000000000000100300202C
:100D300064000000000000000000000074030020B8
:100D4000640000000000000000000000000000003F
:100D5000000000000000000000A24A0400000000A3
:0C0D60000000000001020304060708095F
:04000005080001CD21
:00000001FF
