:020000040800F2
:1000000028070020E5010008B51C0008ED150008D0
:10001000B11C00089312000801260008000000002F
:10002000000000000000000000000000811E000829
:100030009513000800000000291D0008951F000806
:10004000FF010008FF010008FF010008FF01000890
:10005000FF010008FF010008FF010008FF01000880
:10006000FF010008FF010008FF010008FF01000870
:10007000FF010008FF010008FF010008FF01000860
:10008000FF010008FF010008FF010008FF01000850
:10009000FF010008FF010008FF010008FF01000840
:1000A000FF010008FF010008FF010008FF01000830
:1000B000FF010008FF010008FF010008FF01000820
:1000C000FF010008FF010008FF010008FF01000810
:1000D000FF010008F91F0008A92000085D210008A1
:1000E000FF010008FF010008FF010008FF010008F0
:1000F000FF010008FF010008FF010008FF010008E0
:10010000FF010008FF010008FF010008FF010008CF
:10011000FF010008FF010008FF010008FF010008BF
:10012000FF010008FF010008FF010008FF010008AF
:1001300000F002F800F047F80AA090E8000C8244B2
:100140008344AAF10107DA4501D100F03CF8AFF28F
:10015000090EBAE80F0013F0010F18BFFB1A43F0A5
:10016000010318470C3600002C360000103A24BF5B
:1001700078C878C1FAD8520724BF30C830C144BF0C
:1001800004680C607047000000230024002500264E
:10019000103A28BF78C1FBD8520728BF30C148BFEA
:1001A0000B607047662902F00F86002070471FB56C
:1001B00000F016FB04000020002102F087FBE06045
:1001C0001FBD10B510BD00F027FC1146FFF7EFFF73
:1001D00002F0AEFA00F045FC03B4FFF7F2FF03BCF7
:1001E00000F088FC0948804709480047FEE7FEE721
:1001F000FEE7FEE7FEE7FEE7FEE7FEE7FEE7FEE7D7
:1002000004480549054A064B70470000991F00083D
:1002100031010008280100202807002028030020C1
:10022000280300200FB4044910B503AA029800F077
:10023000C5FA10BC5DF814FB1400002070B504462C
:1002400085690068C10601D5302600E02026C00778
:1002500007D070BDD4E9012130469047206A401C88
:1002600020626D1EF6D570BD70B5044685690078B4
:10027000C00707D170BDD4E9012120209047206A32
:10028000401C20626D1EF6D570BD2DE9F0474FF081
:10029000000A89460446C0F820A02046E168884745
:1002A000002876D0252806D0D4E901219047206A7D
:1002B000401C2062F1E7E168204600258847C4F829
:1002C0001CA006460027C4F818A02A2E09D03046E4
:1002D00002F0ACF938B304EB8708303EC8F8186078
:1002E00019E059F8041B204604EB87029161E1688C
:1002F0008847012F064618D1E069002820DA25F04A
:1003000020051DE0D8F8180000EB800006EB400047
:100310003038C8F818002046E1688847064602F0E1
:1003200085F90028EED1012F0AD02E2E08D12046C3
:10033000E16888477F1C0646022F45F02005C4DB94
:10034000A069002803DA404245F00105A061E807F2
:1003500001D025F01005B6B1A6F14100192802D848
:10036000203645F400654A463146204625604D4614
:10037000FFF718FF58B1012806D0ED1D25F0070042
:1003800000F1080989E704E005F1040985E7304632
:100390008AE7206ABDE8F08770477047704770476A
:1003A0002DE9FF4F0C461E464FF0FF378BB0D2E9C8
:1003B0000001DDF860800A908A46C1F30A5505B94C
:1003C0003D46002108464FF00000BAF1000F00F44E
:1003D000400005DA00EB80004FF4400101EA5000D4
:1003E0004FEA9059B9F1010F00DDB9460A9850EA79
:1003F0004A000ED044F61050A5F2FF3545432F14A5
:10040000B8F1000F1ED07542291E1EDDC9F1000291
:100410001CE0B8F1010F4FF0000001D0302103E0E3
:10042000F24305E02154401CB042FBDB3046002281
:10043000002121540B99C1F80880C1E900200FB0B8
:10044000BDE8F08FBD1B6D1CDEE74A4600DA69424D
:1004500006A800F067FA06AB93E8070003AB83E851
:10046000070050460A9900F04CFB8DE80700A0F504
:1004700000501F3800900398002D0ADD42F21F0142
:100480004A460844002303A90390684600F0B5FDDE
:1004900009E0A0F500504A461F38002303A9039045
:1004A000684600F0BFFD8DE807000004000C03D093
:1004B0004FF0FF30410800E01046B8F1000F03D0C4
:1004C0000022009215461EE0751E05D400F08CF93E
:1004D000303262556D1EF9D5B3460122084302D071
:1004E00000227F1C04E02078302801D100227F1EEA
:1004F000002A099784D01DE0112D07DA00F074F965
:10050000303262556D1C50EA0102F5D1084302D029
:100510000098C8B10EE00021681E05E0235C625C13
:1005200063542254401E491C8142F7DBAB46A81B92
:10053000401E0990002004F80B000B98099AC0F89F
:100540000880C0E9002B7AE711264FF0000857E732
:100550002DE9F04F88460446D21D22F0070191B0E4
:10056000D1E90001CDE90A0102F04CF802460B98EE
:10057000C00F01D02D2007E02068810701D52B2076
:1005800002E0202101EAC000032A099001D0072AD5
:1005900005DB03464146204600F084F90BE1207854
:1005A000800601D5E06900E00620B8F1650F8146BC
:1005B00006D0B8F1660F18D0B8F1670F70D131E0EE
:1005C0000020B9F1110F009001DB112301E009F1C6
:1005D00001030AAA01A90CA8FFF7E2FEDDE90C70ED
:1005E000002609F10105834647E001204B460090B3
:1005F0004FF000470AAA01A90CA8FFF7D1FEDDE9D8
:100600000DB00C995D46002610B909F101000D18D6
:10061000B9EB050003D4C0F1FF3609F10105A5EBE4
:1006200009002BE0B9F1010F01DA4FF001090020B8
:10063000B9F1110F0090484601DD112300E0034697
:100640000AAA01A90CA8FFF7ABFEDDE90C704D4624
:1006500000268346207800070AD4AB4500DA5D46C1
:1006600001A8012D04DD411911F8011C302907D022
:100670004F4502DA17F1040F04DA012082460FE039
:100680006D1EEEE7002F02DCED1B3E4403E0781CFC
:10069000A84200DD7D1CB81B00F1010A4FF00047A5
:1006A0002078000703D4AA4501DB4FF0FF3A002170
:1006B000B7F1004F0DF143088DF8431024D002200C
:1006C0002B23002F01DA7F422D230A21021EA0F1E5
:1006D000010000DC5FB197FBF1FC97FBF1F201FB3D
:1006E0001C7C17460CF1300C08F801CDEEE7A8F1A0
:1006F000010003702188090501D5452100E065212D
:10070000A0F1010800F8011C09980FA9A1EB080746
:10071000FF1D00B10120411901EBEA70A1693844C5
:10072000081A401EA0612078C00602D42046FFF7B8
:1007300085FD099828B1D4E901219047206A401C21
:1007400020622078C00622D52046FFF777FD1EE004
:10075000002E04DBB34502DD01A8805D00E03020FF
:10076000D4E901219047206A401C2062761CAAF13E
:1007700001005FEA000A0AD100F032F8C06801689F
:10078000405CD4E901219047206A401C2062281E69
:10079000A5F10105DCDC07E0D4E9012118F8010B23
:1007A0009047206A401C2062381EA7F10107F3DC45
:1007B0002046FFF759FD032011B041E6074B70B505
:1007C0000D467B4400F05BF80446284600F01CF917
:1007D00010B14FF0FF3070BD204670BD531F0000B8
:1007E00000487047E800002030B5B0F10A024FEA37
:1007F000900E71F100034EEA817EB0EB0E0061EBCA
:1008000091014FEA101E4EEA017E10EB0E0041EB03
:1008100011114FEA102E4EEA016E10EB0E0041EB63
:1008200011214FEA104E4EEA014E10EB0E0041EB43
:100830001141401841F100014FEAD00040EA4170F7
:100840004FEAD10110EB80054FEA810444EA90742D
:1008500044EB01046D1944EB0404521BA3414FF017
:10086000000348BF0A3200D530BD401C41F10001F1
:1008700030BD000001694A1C02610878704700B56C
:100880008FB0CDE901310021059105497944CDE9C9
:10089000031011466846FFF7F8FC0FB000BD0000DA
:1008A000E5FFFFFF2DE9F0411F46044603260168DE
:1008B000072A01F4006004DB08B116A505E016A5BF
:1008C00003E008B115A500E015A521F01000206097
:1008D000A069C01EA0610FB1401EA0612046FFF7B5
:1008E000ADFC4FB1D4E9012138469047206A401C45
:1008F0002062C01C206206E0206AFAE7D4E90121E8
:1009000015F8010B9047761EF8D22046FFF7ACFC95
:10091000BDE8F0814E414E006E616E00494E4600CA
:10092000696E66002DE9F047814616468AB0354863
:1009300078440DC88DE80D0032487844801C03AC23
:100940000DC884E80D0041F69B300844372190FB28
:10095000F1F290FBF1F5A5F1800501FB12041B3CBF
:1009600002D56442012000E00020DFF898A0804614
:100970000027FA44AAF1BE0A0EE0E0070AD0324688
:10098000684607EB470101230AEB810100F04AFBAF
:100990008DE8070064107F1C002CEED1194F7F44B6
:1009A000AE3F19E0E80715D007EB04100DF1180A67
:1009B00090E80E008AE80E00C068F04201D1981954
:1009C00008903246012306A903A800F02BFB03ABD5
:1009D00083E807006D10641C002DE3D14FF0010384
:1009E00032466946B8F1000F03A802D000F005FBBB
:1009F00001E000F017FBC9E90001C9F808200AB0BE
:100A0000BDE8F087242E0000007B00F080007047D6
:100A100000487047C80000207546FFF7F9FFAE4652
:100A200005006946534620F00700854618B020B5FA
:100A3000FFF7E6FBBDE820404FF000064FF000074F
:100A40004FF000084FF0000B21F00701AC46ACE876
:100A5000C009ACE8C009ACE8C009ACE8C0098D46E3
:100A6000704710B50446AFF300802046BDE8104043
:100A7000FFF7B2BB4FF0013C50F8042B51F8043B98
:100A80009A4221D1A2EB0C03934313EACC1317D162
:100A900050F8042B51F8043B9A4215D1A2EB0C03F9
:100AA000934313EACC130BD150F8042B51F8043BB9
:100AB0009A4209D1A2EB0C03934313EACC13DBD087
:100AC0004FF00000704700BFD01A01BAB1FA81F1AF
:100AD00001F0180122FA01F0CB40C1F12001DBB294
:100AE000C0B2C01A2CFA01F3D11A914311EAC31112
:100AF000E6D1704701491820ABBEFEE72600020090
:100B000070475FEA400C08BF91F0000F4FEA8C235A
:100B10004FEAC12243EA51514FEA1C5018BF00F579
:100B2000F0404FEA300018BF41F000415FEA6C5CD2
:100B300000F02980BCF1FF3F08BF40F080407047C3
:100B4000130C06BF12044FF0100C4FF0000C130EE4
:100B500004BF12020CF1080C130F04BF12010CF1B8
:100B6000040C930F04BF92000CF1020CD30F04BFCE
:100B700052000CF1010C11464FF00002A0F11F00D1
:100B8000A0EB0C00704711F0004F08BF704731F028
:100B900000413FF4D5AF0B0C06BF09044FF0100C19
:100BA0004FF0000C0B0E04BF09020CF1080C0B0FE8
:100BB00004BF09010CF1040C8B0F04BF89000CF178
:100BC000020CCB0F04BF49000CF1010CCCF1200347
:100BD000A0EB0C0022FA03F302FA0CF241EA030143
:100BE00000F10100704720F07F4C80EA030023F001
:100BF0007F47ACEB070303F57C5300F0004003F1A3
:100C0000FF032DE980494FEA154B09B44FEA14431D
:100C100025EA0B4E24EA03480FF2042606EB1327BD
:100C200049083E785FEA320203FB0667C7F5000712
:100C300007FB06F64FEA54374FEAD64606F102069E
:100C400007FB066CCCF1005C4FEA1C472CEA074C12
:100C500007FB06F40CFB06F504EB15464FEA961667
:100C600034BF00204FF000404FEAD13706FB07FCAD
:100C70004FEA1C4C0CFB0BF7D21B03FB0CF761EB90
:100C800007010CFB0EF7B0EB074072EB17420CFBB1
:100C900008F734BFA2EB0742B2EB074261EB174102
:100CA0004FEA0C444FEA910706FB07FC4FEA1C4C45
:100CB0000CFB0BF7B0EBC74072EB573203FB0CF7A2
:100CC00034BFA2EBC742B2EBC74261EB57310CFB1A
:100CD0000EF7B0EBC70072EB57720CFB08F734BF8E
:100CE000A2EBC702B2EBC70261EB5771039F4FEA59
:100CF000816141EA921104EBCC044FEAD1374FEA0B
:100D0000826206FB07FC42EA90124FEA80604FEADB
:100D10001C4C0CFB0BF7D21B03FB0CF761EB070120
:100D20000CFB0EF7B0EB074072EB17420CFB08F719
:100D300034BFA2EB0742B2EB074261EB17414FEA27
:100D40008C554FEA910704EB9C2406FB07FC4FEA05
:100D50001C4C0CFB0BF7B0EBC74072EB573203FB9C
:100D60000CF734BFA2EBC742B2EBC74261EB57317D
:100D70000CFB0EF7B0EBC70072EB57720CFB08F7D9
:100D800034BFA2EBC702B2EBC70261EB577115EBA0
:100D90004C254FEA816141EA92114FEA82624FEAA3
:100DA000D13742EA901206FB07FC44F100044FEAF7
:100DB00080604FEA1C4C0CFB0BF7D21B03FB0CF7BB
:100DC00061EB07010CFB0EF7B0EB074072EB17422B
:100DD0000CFB08F734BFA2EB0742B2EB074261EB12
:100DE000174115EB1C154FEA813141EA92414FEA58
:100DF000823242EA90424FEA80304FEA0C7644F168
:100E0000000448EA03434EEA0B484FF0000EB2EBF1
:100E1000080C71EB030724BF624639464EEB0E0EF9
:100E20004FF0000B0018524149414BEB0B0BB2EB5A
:100E3000080C71EB03077BF1000B24BF62463946B7
:100E40004EEB0E0E4FF0000B0018524149414BEB98
:100E50000B0BB2EB080C71EB03077BF1000B24BF0B
:100E6000624639464EEB0E0E51EA020718BF46F0B5
:100E7000010616EB0E7655F1000254F1000103D580
:100E8000BDE88901BDE80088BDE88901BDE80048EA
:100E9000B619524141EB0101A3F101037047808073
:100EA0007F7E7D7C7B7A79787776767574737271C4
:100EB00071706F6E6E6D6C6C6B6A6A69686867667C
:100EC00066656464636362616160605F5F5E5E5D0E
:100ED0005D5C5C5B5B5A5A59595858575756565582
:100EE00055555454535352525251515050504F4FE4
:100EF0004F4E4E4D4D4D4C4C4C4B4B4B4A4A4A4934
:100F00004949484848474747474646464545454476
:100F10004444444343434342424242414141002B03
:100F20009C4630D477002BD01CB54FEA370703B46A
:100F30004FF010004FF01001BAF1000F06D0BCF1D5
:100F4000000FDCBF40F0080040F008014FF0000047
:100F50000FBCBDE810400BF1010BBBF1010F08BF46
:100F60005FEA170722BF12F1010211F101014FF0F0
:100F7000004143F1000300F0004043EA00007047E5
:100F8000F9D35708D0E746EA064613F1400F4FEA77
:100F900016461FDD13F1200FDFBF16430A4600215E
:100FA00020335B42BED0C3F1200746EA064602FA70
:100FB00007F74FEA164646EA0706C3F1200722FA6A
:100FC00003F201FA07F721FA03F14FF0000342EAB6
:100FD0000702A7E746EA020646EA06464FEA164631
:100FE00046EA0106BCBF46EA0646360C4FF000034F
:100FF0004FF000024FF0000194E72DE9804C9A4633
:10100000934670B491E8380007C831EA400C48BFF5
:1010100034EA430C03D5FFF7E6FDFFF780FFF0BC91
:10102000BDE8008C2DE9804C9A46934670B491E857
:10103000380007C810F0804F08BF13F0804F03D16D
:1010400000F005F8FFF76BFFF0BCBDE8008C20F066
:101050007F4780EA030023F07F4C07EB0C03A3F5E6
:101060007C5300F00040A3F1FE0392F0000F00F06B
:10107000B38095F0000F00F077802DE901494FEA29
:1010800011404FEA144621EA004800FB06FC24EA1E
:10109000064708FB06F607FB08F800FB07F718EB06
:1010A00006484CEB164C4FEA124B18EB07484FEA38
:1010B00015464CEB174022EA0B4E0BFB06FC25EACB
:1010C00006470EFB06F607FB0EFE0BFB07F71EEBB3
:1010D000064E4CEB164C4FF000061EEB074E4CEB49
:1010E000174B18EB0B0840F1000018EB0E0B58EBF8
:1010F000000840F100008F1A4FF000013CBFC943C7
:10110000661B14BFB5EB040C00213CBFC943F61BA2
:101110004FEA17444EEA8E0E27EA04454FEA1C4771
:1011200004FB07622CEA074C05FB07F70CFB05F6EE
:1011300004FB0CFC16EB074642EB174216EB0C4681
:1011400042EB1C421BEB060658EB0202414146EA09
:101150009E0601D5BDE80189B619524141EB010156
:10116000A3F10103BDE801894FEA14454FEA114795
:1011700024EA054621EA074C05FB07F406FB07F7BE
:101180000CFB06F105FB0CFC11EB074144EB17448B
:101190004FEA124711EB0C4144EB1C4422EA074C86
:1011A00005FB07F206FB07F70CFB06F605FB0CFC3C
:1011B00016EB074642EB174216EB0C4642EB1C457A
:1011C0006A1854F1000148BF7047B619524141EB0B
:1011D0000101A3F10103704795F0000F37D04FEAEA
:1011E00011424FEA144721EA024624EA074C02FB67
:1011F00007F106FB07F70CFB06F402FB0CFC14EBF3
:10120000074441EB17414FEA154714EB0C4441EBFF
:101210001C4125EA074C02FB07F506FB07F70CFB10
:1012200006F602FB0CFC16EB074645EB174516EBE2
:101230000C4645EB1C42121951F1000148BF7047A2
:10124000B619524141EB0101A3F1010370474FEA86
:1012500014454FEA114724EA054621EA074C05FBED
:1012600007F106FB07F70CFB06F24FF0000605FB43
:101270000CFC12EB074241EB174112EB0C4251EB15
:101280001C4148BF7047921841EB0101A3F10103D3
:10129000704700BFFEE7000010B500241548006845
:1012A00020F00F00134908600846006840F008006D
:1012B000086004E0601CC4B2012001F007FA0E4887
:1012C000006808B1642CF5DB642C01DB012010BD43
:1012D000002404E0601CC4B2012001F0F7F90648C4
:1012E000006808B9642CF5DB642C01DB0120EEE713
:1012F0000020ECE7040801402001214208B501214B
:10130000042000F033FD4FF48070ADF80000102091
:101310008DF8030003208DF802006946064800F0AE
:101320003AF84FF48071044800F05EF900F006F8D6
:10133000FFF7B2FF08BD00000008014010B50C48DF
:10134000006820F00F000A4908600846006840F075
:1013500003000860002007490860142001F090F99C
:1013600001200549C1F8A0011E2001F0AFF910BD10
:1013700004080140A00121420000214210B5034AA7
:101380000121034800F0A4FB10BD0000A08601006D
:101390000054004070472DE9F04102460025002628
:1013A000002000230024002791F803C00CF00F0553
:1013B00091F803C00CF0100CBCF1000F03D091F8B1
:1013C00002C04CEA050591F800C0BCF1000F31D015
:1013D000146800202BE04FF0010C0CFA00F3B1F878
:1013E00000C00CEA03069E4220D183004FF00F0C90
:1013F0000CFA03F7BC4305FA03FC4CEA040491F829
:1014000003C0BCF1280F06D14FF0010C0CFA00FC10
:10141000C2F814C00AE091F803C0BCF1480F05D12E
:101420004FF0010C0CFA00FCC2F810C0401C082858
:10143000D1D31460B1F800C0BCF1FF0F34DD5468A3
:1014400000202EE000F1080C4FF0010808FA0CF320
:10145000B1F800C00CEA03069E4221D183004FF090
:101460000F0C0CFA03F7BC4305FA03FC4CEA040426
:1014700091F803C0BCF1280F05D100F1080C08FA5F
:101480000CF8C2F8148091F803C0BCF1480F07D1E2
:1014900000F1080C4FF0010808FA0CF8C2F81080AF
:1014A000401C0828CED35460BDE8F081F0B50A4650
:1014B000002300240021002500F00046B6F1004F73
:1014C00002D11D4EF16901E01B4E7168C0F3034566
:1014D00083B200F44016B6F5401F08D121F07061C8
:1014E000154E766826F07066134F7E6012E000F4A9
:1014F0008016B6F5801F06D1032606FA05F4A1432F
:1015000041F0706106E0460D360103FA06F6B1437C
:1015100041F0706122B1460D360103FA06F63143FF
:1015200000F00046B6F1004F02D1034EF16101E038
:10153000014E7160F0BD000000000140F8B50446A6
:101540000D4616461F462148844204D1012104203D
:1015500000F00CFC2EE01E48844204D1012108203A
:1015600000F004FC26E01B48844204D10121102035
:1015700000F0FCFB1EE01848844204D10121202029
:1015800000F0F4FB16E01548844204D1012140200C
:1015900000F0ECFB0EE01248844204D101218020CF
:1015A00000F0E4FB06E00F48844203D101218015DE
:1015B00000F0DCFBADF800508DF803608DF8027090
:1015C00069462046FFF7E7FEF8BD0000000801402D
:1015D000000C0140001001400014014000180140BF
:1015E000001C0140002001400161704700BFFEE780
:1015F00010B504460121082000F0B8FB34B9C02022
:10160000104908801048FFF7C6FE1AE0012C0BD1E4
:101610004FF440700B4908800B48FFF7BCFE0121D6
:101620000220FFF743FF0CE0022C0AD14FF41070A8
:10163000044908800448FFF7AEFE01210220FFF7AD
:1016400035FF10BD04000020000C014010B5044619
:10165000032C09D10121082000F088FBA0020349D6
:1016600008800348FFF797FE10BD0000040000202B
:10167000000C014021B1028842F48062028004E043
:1016800002884FF6FF331A400280704770B5024659
:101690000024002500230020958A138B1B0445EAB3
:1016A000030626F07F4404EA01068E4201D10120A0
:1016B00000E0002070BD21B1028842F001020280EA
:1016C00004E002884FF6FE731A400280704721B191
:1016D000028842F48072028004E002884FF6FF63C1
:1016E0001A400280704721B1028842F400720280E1
:1016F00004E002884FF6FF531A40028070470CB591
:101700000246002000230193009300920B0F0193E7
:1017100021F07F41019B1BB1009B1433009303E038
:10172000090C009B18330093009B1B680B400BB106
:10173000012000E000200CBD2DE9F04385B00446F7
:101740000D460026B1460427DFF8CC80A6884FF668
:10175000C0700640684600F029FBDDF808802F487D
:10176000B8FBF0F01FFA80F946EA0906A680208847
:101770004FF6FE71084020800026294928688842DB
:101780000CD828684000B8FBF0F087B2042F00DACC
:1017900004273E4309F10100208427E0E8884BF646
:1017A000FF71884206D1286800EB4000B8FBF0F0DA
:1017B00087B209E0286800EBC00101EB0010B8FB1C
:1017C000F0F087B247F48047C7F30B0008B947F041
:1017D000010747F4004006434FF4967009FB00F000
:1017E0004FF47A7190FBF1F0401C2084A68320888E
:1017F00040F00100208026884FF6F5300640A8888A
:101800006989084306432680A889298908432081DD
:1018100005B0BDE8F083000000127A0040420F00DE
:10182000A086010070B5044601212046FFF722FF83
:1018300044F620600B49086004E00A480068401E36
:101840000849086008492046FFF720FF18B90548F5
:1018500000680028F1D1204600F060F805462846CF
:1018600070BD000000000020400003002DE9F0479B
:101870008046894616461D46089F00231A4649465B
:10188000404600F05BF83146404600F001F9404622
:1018900000F0BCF801231A464946404600F04EF8D5
:1018A00000240DE0781EA04204D1404600F00EF85E
:1018B000285503E04046FFF7B5FF2855601CC4B229
:1018C000BC42EFDB0020BDE8F087000070B50446A5
:1018D00000212046FFF7CEFE01212046FFF703FF3F
:1018E00044F620600B49086004E00A480068401E86
:1018F0000849086008492046FFF7C8FE18B905489E
:1019000000680028F1D1204600F008F80546284676
:1019100070BD000000000020400003000146088A5E
:10192000C0B2704712B141F0010102E04FF6FE7300
:101930001940018270470182704700002DE9F04193
:1019400005460F4614461E4601212846FFF7BFFEF6
:1019500044F620602949086008E028480068401ED5
:101960002649086010B90120BDE8F08124492846C5
:10197000FFF7C5FE18B9214800680028EDD11EB157
:1019800001212048FFF776FE224639462846FFF718
:10199000C9FFBCB944F620601849086007E0174841
:1019A0000068401E1549086008B90120DCE71449A9
:1019B000491C2846FFF7A3FEE0B91048006800283C
:1019C000EDD117E0012C15D144F620600B490860D9
:1019D00007E00A480068401E0849086008B901206D
:1019E000C2E709492846FFF751FE18B903480068C5
:1019F0000028EED1288B0020B6E700000000002070
:101A000001000010005400400200030010B504461D
:101A100044F620600F49086007E00E480068401E49
:101A20000C49086008B9012010BD0B492046FFF79A
:101A300066FE28B108497C392046FFF760FE18B9D8
:101A4000044800680028E8D101212046FFF74BFE3A
:101A50000020E9E700000020800000102DE9F0419F
:101A600006460F4614461D4600231A4639463046A0
:101A7000FFF764FF2146304600F00AF82946304659
:101A800000F006F83046FFF7C1FFBDE8F081000026
:101A900070B504460D4644F620600B49086004E02A
:101AA00009480068401E0849086008492046FFF7B9
:101AB00026FE18B9044800680028F1D129462046BE
:101AC000FFF739FF70BD000000000020800000100B
:101AD0007FB504460E4615460121084600F046F93A
:101AE0001C202249C870032088702148844216D1E6
:101AF0000121480500F01AF93046FFF779FD0095FD
:101B00002014ADF80C000020ADF80400ADF808007A
:101B1000ADF80A004BF6FF70ADF8060018E0154866
:101B2000844215D10121880500F000F93046FFF705
:101B30008DFD00952014ADF80C000020ADF80400D8
:101B4000ADF80800ADF80A004BF6FF70ADF80600DE
:101B500000212046FFF7AFFD69462046FFF7ECFD68
:101B600001212046FFF7A7FD7FBD000004000020F3
:101B7000005400400058004010B508200249087089
:101B8000002000F013F810BD0F00002010B5012058
:101B900000F005F84FF4FA6000F098FD10BD10B5A4
:101BA00004460021204600F033F810BD10B504466D
:101BB0000548007844EA00030022044801780448FC
:101BC000FFF74CFF10BD00000F00002008000020B0
:101BD0000054004070B50446002504E0605D00F04C
:101BE00047F8681CC5B2605D0028F7D170BD10B51C
:101BF000044644F00400FFF7D9FF012000F066FD21
:101C000024F00400FFF7D2FF322000F05FFD10BD8A
:101C10002DE9F04104460D4604F0F006F02000EAFC
:101C2000041746EA050000F02AF847EA050000F02C
:101C300026F8BDE8F08100007FB505460C460A4B4A
:101C40000FCB8DE80F0009480078844203DD074878
:101C50000078401EC4B21DF824102944C9B241F0D6
:101C60008000FFF79CFF7FBDCC2D00080D000020F9
:101C700010B5044601212046FFF7CAFF10BD10B57C
:101C800004462046FFF792FF2046FFF7B0FF10BD45
:101C900010B50323102251020448FFF74FFC4FF404
:101CA00000510248FFF7A0FC10BD000000100140E9
:101CB00000BFFEE77047000070B5002100230F222F
:101CC000C47804B3154C246804F4E064C4F5E064FB
:101CD000210AC1F10403CA40447804FA03F184786C
:101CE0001440214309010E4C0678A155047804F0F4
:101CF0001F050124AC4005786D11AD0005F1E0250C
:101D0000C5F8004109E0047804F01F050124AC4047
:101D1000044D0678761145F8264070BD0CED00E0C4
:101D200000E400E080E100E07047000029B1064ACD
:101D3000D2690243044BDA6104E0034AD269824368
:101D4000014BDA61704700000010024029B1064AD9
:101D500012690243044B1A6104E0034A1269824388
:101D6000014B1A61704700000010024029B1064A79
:101D700092690243044B9A6104E0034A92698243E8
:101D8000014B9A61704700000010024029B1064AD9
:101D9000D2680243044BDA6004E0034AD26882430B
:101DA000014BDA60704700000010024030B500219E
:101DB0000022002400232D4D6D6805F00C0121B197
:101DC000042905D0082923D105E0294D056022E02A
:101DD000274D05601FE0254D6D6805F47012234DF9
:101DE0006D6805F48034022505EB92421CB9214D43
:101DF000554305600BE01D4D6D6805F400351DB1C0
:101E00001C4D5543056002E0194D5543056002E045
:101E1000174D056000BF00BF144D6D6805F0F0015F
:101E20000909154D6B5C0568DD4045600F4D6D6817
:101E300005F4E061090A104D6B5C4568DD40856082
:101E40000A4D6D6805F46051C90A0B4D6B5C45681D
:101E5000DD40C560054D6D6805F44041890B074DB7
:101E60006B5CC568B5FBF3F5056130BD0010024041
:101E700000127A0000093D004000002050000020C0
:101E8000704710B500F002F810BD00000CB500203E
:101E9000019000903348006840F480303149086078
:101EA00000BF3048006800F4003000900198401CEA
:101EB0000190009818B90198B0F5A06FF1D12948A8
:101EC000006800F4003010B10120009001E0002013
:101ED00000900098012843D12348006840F010008A
:101EE000214908600846006820F0030008600846A1
:101EF000006840F0020008601A48406819494860CC
:101F00000846406848600846406840F48060486081
:101F10000846406820F47C1048600846406840F459
:101F2000E81048600846006840F08070086000BF14
:101F30000C48006800F000700028F9D0094840689B
:101F400020F00300074948600846406840F002005E
:101F5000486000BF0348406800F00C000828F9D131
:101F60000CBD00000010024000200240042808D1EF
:101F70004FF0E021096941F004014FF0E0221161C6
:101F800007E04FF0E021096921F004014FF0E02261
:101F9000116170477047000010B51348006840F0A9
:101FA00001001149086008464068104908400E4980
:101FB0004860084600680E4908400B49086008461A
:101FC000006820F4802008600846406820F4FE0085
:101FD00048604FF41F008860FFF753FF4FF0006028
:101FE0000449086010BD0000001002400000FFF826
:101FF000FFFFF6FE08ED00E010B540F2255106485F
:1020000000F091F930B10448001D0088C1B20348C6
:1020100000F0C8F910BD0000003801401800002091
:1020200010B50446E4B901210520FFF79FFE012108
:102030008803FFF79BFE4FF40070184908801820B2
:10204000C870032088701648FFF7A5F94FF4806028
:10205000124908800420C8701148FFF79CF91BE062
:10206000012C19D101210820FFF780FE01218803EE
:10207000FFF77CFE4020094908801820C870032023
:1020800088700848FFF787F98020044908800420F9
:10209000C8700448FFF77FF910BD00003C00002025
:1020A00000080140000C014010B540F225510648DF
:1020B00000F039F930B10448001D0088C1B203486E
:1020C00000F070F910BD0000004400402400002022
:1020D00010B5044601214804FFF728FE022C1AD14E
:1020E00001210420FFF742FE01214804FFF71EFEF4
:1020F0000420174908801820C870032088701548EC
:10210000FFF749F90820124908800420C8701148D7
:10211000FFF741F91BE0032C19D101212020FFF723
:1021200025FE01214804FFF701FE20200849088010
:102130001820C870032088700748FFF72CF940204A
:10214000034908800420C8700348FFF724F910BD34
:102150003C000020000801400014014010B540F28E
:102160002551064800F0DFF830B10448001D008812
:10217000C1B2034800F016F910BD0000004800404D
:102180003000002010B5044601218804FFF7CEFD81
:10219000042C1AD101210820FFF7E8FD0121880451
:1021A000FFF7E4FD2002284908801820C8700320AA
:1021B00088702648FFF7EFF8600223490880042062
:1021C000C8702248FFF7E7F83CE0052C1CD101213C
:1021D0001020FFF7CBFD01218804FFF7C7FD4FF466
:1021E0008060194908801820C8700320887018483A
:1021F000FFF7D1F84FF40060134908800420C8703D
:102200001348FFF7C8F81DE0062C1BD10121202040
:10221000FFF7ACFD01218804FFF7A8FD4FF48070A3
:10222000094908801820C870032088700948FFF702
:10223000B2F84FF40070044908800420C8700548C3
:10224000FFF7A9F810BD00003C000020000C014081
:10225000001001400014014021B1828942F4005273
:10226000828104E082894DF6FF731A4082817047B3
:1022700010B504462048844209D101218803FFF7A4
:1022800085FD00214FF48040FFF780FD32E01B48C0
:10229000844209D101214804FFF758FD00214FF481
:1022A0000030FFF753FD25E01548844209D1012194
:1022B0008804FFF74BFD00214FF48020FFF746FD17
:1022C00018E01048844209D10121C804FFF73EFDFF
:1022D00000214FF40020FFF739FD0BE00A4884424B
:1022E00008D101210805FFF731FD00214FF48010CE
:1022F000FFF72CFD10BD00000038014000440040F5
:1023000000480040004C00400050004002460020C1
:10231000B1F5007F00D100BF13880B400BB1012045
:1023200000E00020704770B502460024002300251D
:10233000002040F66A16B14200D100BFC1F3421539
:1023400001F01F03012606FA03F3012D02D196893D
:10235000334006E0022D02D1168A334001E0968A0E
:1023600033400C12012606FA04F41688344013B1E7
:102370000CB1012000E0002070BD00000146064ABB
:10238000914200D10020054A914200D10120044A27
:10239000914200D1022070470038014000440040C3
:1023A0000048004010B5C28883889A420FDA02893B
:1023B00083889A4201D1002202814AB204890368CB
:1023C0001A550289521C0281C288521CC28010BD5B
:1023D000F0B50346002400260025002040F66A17C9
:1023E000B94200D100BF1846C1F3421401F01F06E4
:1023F000012707FA06F5012C01D10C3004E0022C6C
:1024000001D1103000E014301AB107682F43076083
:1024100002E00768AF430760F0BD00002DE9F04718
:1024200086B005460E460024A24600BFA1460027FE
:10243000B08900B100BF2F462C8A4CF6FF700440D3
:10244000F08804432C82AC894EF6F3100440B08827
:1024500031890843718908430443AC81AC8A4FF643
:10246000FF400440B0890443AC8201A8FFF79EFC02
:102470001F48874202D1DDF810A001E0DDF80CA072
:10248000A88900F4004040B10AEBCA0000EB0A1032
:1024900031684900B0FBF1F807E00AEBCA0000EB35
:1024A0000A1031688900B0FBF1F86420B8FBF0F045
:1024B00004012009642101FB1089A88900F400406F
:1024C00040B1322000EBC900B0FBF1F000F0070092
:1024D000044308E0322000EB09106421B0FBF1F066
:1024E00000F00F0004432C8106B0BDE8F087000027
:1024F0000038014013B5044600BF80212046FFF795
:1025000005FF0028F9D09DF80400A0801CBD000044
:1025100070B586B004460D46164601210846FFF701
:1025200025FC02963348844212D12846FFF778FDF5
:1025300025208DF804000020ADF814000C20ADF823
:1025400012000020ADF81000ADF80E00ADF80C0040
:102550002948844212D12846FFF7BAFD26208DF87B
:1025600004000020ADF814000C20ADF8120000208B
:10257000ADF81000ADF80E00ADF80C001F48844215
:1025800012D12846FFF7FEFD27208DF80400002019
:10259000ADF814000C20ADF812000020ADF81000CA
:1025A000ADF80E00ADF80C0000212046FFF754FEF8
:1025B0002046FFF75DFE02A92046FFF72FFF01210D
:1025C0002046FFF749FE012240F225512046FFF741
:1025D000FFFE01208DF8070000208DF80500204641
:1025E000FFF7CCFE8DF8060001A8FFF765FB06B0EB
:1025F00070BD000000380140004400400048004029
:1026000000BFFEE7490050EAC12018BF04204A0D70
:1026100018BF40F0010040F2FF72B2EB515F08BFFB
:1026200040F00200012808BF0520704730380A2812
:1026300001D20120704700207047000010B56FF0F4
:102640000400FFF793FC0A4800680A49B0FBF1F068
:10265000094908700846007800EB4001C1EBC01042
:102660004FF6FF7101EAC0000449088010BD000068
:102670005400002000127A001000002012000020F8
:102680000146114A12884A434FF0E0235A61002262
:102690009A611A46126942F001021A6100BF4FF0B6
:1026A000E022106900F001021AB100F48032002A21
:1026B000F5D04FF0E022126922F001024FF0E02342
:1026C0001A6100229A617047120000200146114AE7
:1026D00012784A434FF0E0235A6100229A611A4669
:1026E000126942F001021A6100BF4FF0E022106946
:1026F00000F001021AB100F48032002AF5D04FF048
:10270000E022126922F001024FF0E0231A61002258
:102710009A6170471000002070B504460D46E1B282
:102720000248FFF7E7FE204670BD00000038014078
:102730001CB500BF00BF0020019000248146FFF7B8
:10274000A7FAFFF77BFF0121152000F065F80021B3
:10275000162000F061F84FF4165200212448FFF7CC
:10276000D7FEFEF7CBFDFEF709FE40F21450FFF74F
:1027700087FFFFF701FAFFF709FA00210220FFF7B0
:102780005BFA1CA0FFF726FA31E01C4A01211C4825
:10279000FFF79EF90023102246211948FFF75EF942
:1027A000C820FFF76DFF022001AB002246210090F8
:1027B0001348FFF75BF89DF805009DF8041040EA08
:1027C0000124204600F022FA07464FF033320D4B29
:1027D00000F0C4F8054600F08FF88146484600F046
:1027E0007DFA05462A460B4607A0FDF71BFDCCE700
:1027F0000038014048656C6C6F202100A086010004
:10280000005400403333F33F4C55583D2025342EBF
:1028100032660D0A00000000F8B505460C4605EBCF
:102820004500294951F8306005EB450001EBC00037
:10283000808887B205EB4501234A02EBC101886815
:102840000121FFF793FAADF800701CB904208DF850
:10285000030034E0022C03D148208DF803002EE061
:10286000032C03D128208DF8030028E0012C06D189
:1028700010208DF8030003208DF802001FE0072CC4
:1028800006D114208DF8030003208DF8020016E015
:10289000042C06D11C208DF8030003208DF80200C3
:1028A0000DE0052C06D118208DF8030003208DF8CB
:1028B000020004E0062C02D100208DF803006946D6
:1028C0003046FEF768FDF8BDDC2D000810B5002984
:1028D0000AD00878002807D005487844FEF7CAF8DF
:1028E000002801D0002010BD0248784410BD00002F
:1028F000B60E0000AE0E000021F00042A2F16052C0
:10290000B2F5801F01F0004328BFD2F17F6C0BD9D4
:102910005FEA001C43EAC20242EB507018BF7047E6
:1029200028BF20F001007047B2F5801FBCBF1846D9
:1029300070474FEA410C1CF5001F02D2084600F018
:102940003EBA70B500F075F900000089FFF7F6BFD8
:102950004FF00040A0F58000704700002DE9C04115
:1029600030B4DFF8A0C23CEA111418BF3CEA1314DB
:1029700000F0EC8081EA03051CEA111444EAD574E6
:1029800018BF1CEA131500F0C780A4EB05044FF034
:10299000004545EAC12145EAC32341EA505143EAD3
:1029A000525304F17F74994204F500344FEAC02079
:1029B0004FEAC22208BF904200F09C804FEA1365A4
:1029C0000FF24016765D4FEA134506FB05F7C7F197
:1029D000807706FB07F74FEAD737A7FB03687642F5
:1029E000C8F58038A7FB06CE38BFA8F1010807FB61
:1029F00008E64FF0000EA6FB028CE6FB03CEDCF1EE
:102A0000000CCEF1004E38BFAEF1010EA6FB0C5803
:102A10004FF000074FF00005E6FB0E87A1FB08C64C
:102A2000A0FB07CE16EB0E0645F10005E1FB07659E
:102A300015F1E04E7EBFA4F580345FEA46066D4195
:102A400016F1800745F100054FEA17274FEA0666A1
:102A500047EA0567A6F1DE46B6F1805F4FEA152525
:102A60001FD9384624F0010C05EBC471BCF1FE6F90
:102A700001EB0C1102D8F0BCBDE8008124425CBF20
:102A800001F5801E9EEAC47F02D4F0BCBDE800813F
:102A9000244238D4F0BCA1F1C041BDE8004100F0AF
:102AA00016B94FEAD22242EA43524FEAD323A7FB98
:102AB00002864FEAD02040EA415007FB03661EEA37
:102AC0000E0F4FEAD12105FB026658BFA6EB005658
:102AD000B6EB00564FEA520E4EEAC37E18EB0E0ECE
:102AE00056EB530EBDD518EB02085E417F1C55F125
:102AF0000005B6E74FF480154FF000074FF00006D1
:102B00004FF00008ADE7F0BC4FF0000001F1C0410C
:102B100001F00041BDE8008111EA0C1F0CEA131519
:102B200000D00CE013EA0C1F00F025804FF00000ED
:102B3000F0BC81EA030101F00041BDE80081F0BC76
:102B4000BDE8004181EA030100F0C1B8F0BCBDE876
:102B5000004170B500F06DF8097EFC3E00F007B84A
:102B600081EA03014FF0000001F00041704781EA63
:102B7000030100F0ACB8F0BCBDE800414FF000002C
:102B800021497047FFFDFBF9F7F5F4F2F0EEEDEBAC
:102B9000E9E8E6E4E3E1E0DEDDDBDAD8D7D5D4D35B
:102BA000D1D0CFCDCCCBCAC8C7C6C5C4C2C1C0BFA7
:102BB000BEBDBCBBBAB9B8B7B6B5B4B3B2B1B0AFAD
:102BC000AEADACABAAA9A8A8A7A6A5A4A3A3A2A191
:102BD000A09F9F9E9D9C9C9B9A999998979796954C
:102BE00095949393929191908F8F8E8E8D8C8C8BE8
:102BF0008B8A898988888787868585848483838270
:102C0000828181800000FF070000F87FB0FA80F326
:102C100010FA03F10AD0C3F11D0303F580634FEAF4
:102C200041504FEA035202EBD12170474FF00000B0
:102C300070470EF1020E2EF0030E5EF8046B364262
:102C400005D4012A43EB030515F5001F12D801280E
:102C500041EB010C1CF5001F0CD80ED14FEAD17CC2
:102C600015F5001F0CEB4C0C0CF1020C08BF4CEBE3
:102C7000D37C04E04FF0080C01E04FEAD37C0CEB6E
:102C80004C0526FA05F606F00706B6F1040C06D246
:102C90000EEB860CBDE870404CF0010C6047DFE89D
:102CA0000CF0090B02024FF000414FF00000A1F5BB
:102CB000002170BD19461046012851EB010418BFD0
:102CC000D4F5001484BF002001F0004170BD080855
:102CD000A0F500114FEA31017047000043004FEAB0
:102CE000D30C4FEA3C0C43401FBF40070CF160512E
:102CF00013F0FE4F70471CF0006F03D100200CF062
:102D0000004170470CF0004343EA507010B540EAB0
:102D1000CC0000F00EF800BF000000924FEA000166
:102D2000FFF7D5BF4FF000414FF00000A1F50021A3
:102D300070470EF1020E2EF0030E5EF8044B244293
:102D400004D44FEA4102B2F17F4F11D84FEA400359
:102D5000B3F17F4F0CD80ED14FEAD07CB2F17F4F48
:102D60000CEB4C0C0CF1020C08BF4CEBD17C04E0DA
:102D70004FF0080C01E04FEAD17C0CEB4C0324FA35
:102D800003F404F00704B4F1040C06D20EEB840C37
:102D9000BDE810404CF0010C6047DFE80CF007087C
:102DA00002024FF00040A0F5800010BD084642002E
:102DB00018BFD2F1807288BF00F0004010BDFF2123
:102DC00041EAD050C0057047FDF7C2BB00000000CB
:102DD0004000000014000000540000000008014002
:102DE000010000000400000000000000000C004092
:102DF0000000000000080140020000000400000084
:102E00000100000000000040040000000008014034
:102E10000400000004000000020000000000004068
:102E20000800000000080140080000000400000045
:102E300003000000000000400C00000000080140FA
:102E4000100000000400000004000000000000006A
:102E50000000000000080140200000000400000005
:102E60000500000000000000000000000008014014
:102E700040000000040000000600000000040040C4
:102E80000000000000080140800000000400000075
:102E9000070000000004004004000000000801409A
:102EA000000100000400000000000000002C0140B0
:102EB00000000000000801400002000004000000C3
:102EC00000000000002C0140040000000008014048
:102ED000000400000400000000000000002C01407D
:102EE0000800000000080140000800000400000085
:102EF00000000000002C01400C0000000008014010
:102F000000100000040000000000000000000000AD
:102F10000000000000080140002000000400000044
:102F20000000000000000000000000000008014058
:102F3000004000000400000000000000000000004D
:102F400000000000000801400080000004000000B4
:102F5000000000000000000000000000000C014024
:102F6000010000000800000008000000000400400C
:102F700008000000000C01400200000008000000F2
:102F800009000000000400400C000000000C01409B
:102F90000400000008000000000000000000000025
:102FA00000000000000C01400800000008000000C4
:102FB000000000000000004004000000000C014080
:102FC00010000000080000000000000000040040A5
:102FD00000000000000C014020000000080000007C
:102FE000000000000004004004000000000C01404C
:102FF0004000000008000000000000000008004041
:1030000000000000000C01408000000008000000EB
:10301000000000000008004004000000000C014017
:103020000001000008000000000000000050014006
:1030300000000000000C0140000200000800000039
:10304000000000000054014000000000000C01409E
:103050000004000008000000000000000000004024
:1030600008000000000C01400008000008000000FB
:1030700000000000000000400C000000000C0140B7
:103080000010000008000000000000000000000028
:1030900000000000000C01400020000008000000BB
:1030A000000000000000000000000000000C0140D3
:1030B0000040000008000000000000000018004070
:1030C00000000000000C014000800000080000002B
:1030D0000000000000180040040000000010014043
:1030E00001000000100000000A00000000000000C5
:1030F000000000000010014002000000100000006D
:103100000B00000000000000000000000010014063
:1031100004000000100000000C000000000000008F
:103120000000000000100140080000001000000036
:103130000D00000000000000000000000010014031
:1031400010000000100000000E0000000000000051
:1031500000000000001001402000000010000000EE
:103160000E00000000000000000000000010014000
:10317000400000001000000000000000003401408A
:10318000000000000010014080000000100000005E
:103190000000000000340140040000000010014065
:1031A0000001000010000000000000000034014099
:1031B00008000000001001400002000010000000A4
:1031C00000000000003401400C000000001001402D
:1031D00000040000100000000000000000000000DB
:1031E0000000000000100140000800001000000076
:1031F000000000000000000000000000001001407E
:10320000001000001000000000000000000000009E
:10321000000000000010014000200000100000002D
:10322000000000000000000000000000001001404D
:10323000004000001000000000000000000000003E
:10324000000000000010014000800000100000009D
:103250000000000000000000000000000014014019
:10326000010000002000000000000000000000003D
:1032700000000000001401400200000020000000D7
:1032800000000000000000000000000000140140E9
:10329000040000002000000000000000000000000A
:1032A00000000000001401400800000020000000A1
:1032B00000000000000000000000000000140140B9
:1032C00010000000200000000000000000000000CE
:1032D0000000000000140140200000002000000059
:1032E0000000000000000000000000000014014089
:1032F000400000002000000000000000000000006E
:1033000000000000001401408000000020000000C8
:103310000000000000000000000000000014014058
:10332000000100002000000000000000000000007C
:103330000000000000140140000200002000000016
:103340000000000000000000000000000014014028
:103350000004000020000000000000000000000049
:1033600000000000001401400008000020000000E0
:1033700000000000000000000000000000140140F8
:1033800000100000200000000000000000080040C5
:103390000000000000140140002000002000000098
:1033A000000000000008004004000000001401407C
:1033B0000040000020000000000000000008004065
:1033C0000800000000140140008000002000000000
:1033D00000000000000800400C0000000018014040
:1033E000010000004000000000000000000000009C
:1033F0000000000000180140020000004000000032
:103400000000000000000000000000000018014063
:103410000400000040000000000000000000000068
:1034200000000000001801400800000040000000FB
:103430000000000000000000000000000018014033
:10344000100000004000000000000000000000002C
:1034500000000000001801402000000040000000B3
:1034600000000000001000400000000000180140B3
:10347000400000004000000000000000001000407C
:10348000040000000018014080000000400000001F
:1034900000000000000000000000000000180140D3
:1034A00000010000400000000000000000000000DB
:1034B0000000000000180140000200004000000071
:1034C00000000000002C0140000000000018014036
:1034D00000040000400000000000000000000000A8
:1034E000000000000018014000080000400000003B
:1034F00000000000002C0140040000000018014002
:10350000001000004000000000000000000000006B
:1035100000000000001801400020000040000000F2
:1035200000000000002C01400800000000180140CD
:10353000004000004000000000000000002C01409E
:103540000C00000000180140008000004000000056
:10355000000000000000000000000000001C01400E
:1035600001000000800000000000000000000000DA
:1035700000000000001C014002000000800000006C
:10358000000000000000000000000000001C0140DE
:1035900004000000800000000000000000000000A7
:1035A00000000000001C0140080000008000000036
:1035B000000000000000000000000000001C0140AE
:1035C000100000008000000000000000000000006B
:1035D00000000000001C01402000000080000000EE
:1035E000000000000000000000000000001C01407E
:1035F000400000008000000000000000000000000B
:1036000000000000001C014080000000800000005D
:10361000000000000000000000000000001C01404D
:103620000001000080000000000000000000000019
:1036300000000000001C01400002000080000000AB
:10364000000000000000000000000000001C01401D
:1036500000040000800000000000000000000000E6
:1036600000000000001C0140000800008000000075
:10367000000000000000000000000000001C0140ED
:1036800000100000800000000000000000000000AA
:1036900000000000001C014000200000800000002D
:1036A000000000000000000000000000001C0140BD
:1036B000004000008000000000000000000000004A
:1036C00000000000001C014000800000800000009D
:1036D00000000000000000000000000002400000A8
:1036E000000000A00000000005400000000000C82D
:1036F000000000000C4000000000409C00000000A2
:10370000194000000020BCBE000000003440000052
:10371000BFC91B8E00000004B5400000504BCFD045
:103720006607E2CF010000006C4100003E8251AA12
:10373000DFEEA73401000000D9420000DCB5A0E2B2
:103740003A301F97FFFFFFFFB4450000FD25A0C8DA
:10375000E9A3C14FFFFFFFFFFF3F00000000008013
:1037600000000000FF3F000000000080000000009B
:10377000AC37000800000020680000006C01000861
:103780001438000868000020C00600008801000806
:103790001C00000043000000F8FFFFFF0C000000C9
:1037A0000E0000000F0000002E00000000000000CE
:1037B0000000000000000000000000000000000009
:1037C0000000000068000020200000000000000051
:1037D000880000202000000000000000A800002059
:1037E00020000000000000000000000000000000B9
:1037F0000102030401020304060708090204060883
:1038000000A24A04000000000000000001020304BE
:043810000607080996
:0400000508000131BD
:00000001FF
