:020000040800F2
:1000000078050020450100082D03000805030008BD
:10001000290300088D010008A50900080000000060
:100020000000000000000000000000007106000851
:100030009101000800000000B50300085D070008FA
:100040005F0100085F0100085F0100085F01000810
:100050005F0100085F0100085F0100085F01000800
:100060005F0100085F0100085F0100085F010008F0
:100070005F0100085F0100085F0100085F010008E0
:100080005F0100085F0100085F0100085F010008D0
:100090005F0100085F0100085F0100085F010008C0
:1000A0005F0100085F0100085F0100085F010008B0
:1000B0005F0100085F0100085F0100085F010008A0
:1000C0005F0100085F0100085F0100085F01000890
:1000D0005F010008CD0700085F0100085F0100080C
:1000E0005F0100085F0100085F0100085F01000870
:1000F0005F0100085F0100085F0100085F01000860
:100100005F0100085F0100085F0100085F0100084F
:100110005F0100085F0100085F0100085F0100083F
:100120005F0100085F0100085F0100085F0100082F
:10013000DFF80CD000F018F800480047310A00083A
:10014000780500200648804706480047FEE7FEE79E
:10015000FEE7FEE7FEE7FEE7FEE7FEE7FEE7FEE777
:100160006D07000831010008064C074D06E0E06805
:1001700040F0010394E8070098471034AC42F6D3EE
:10018000FFF7DAFFDC0B0008FC0B000800BFFEE7FE
:1001900070472DE9F041024600250026002000238B
:1001A0000024002791F803C00CF00F0591F803C05C
:1001B0000CF0100CBCF1000F03D091F802C04CEA17
:1001C000050591F800C0BCF1000F31D01468002083
:1001D0002BE04FF0010C0CFA00F3B1F800C00CEA70
:1001E00003069E4220D183004FF00F0C0CFA03F758
:1001F000BC4305FA03FC4CEA040491F803C0BCF1CB
:10020000280F06D14FF0010C0CFA00FCC2F814C004
:100210000AE091F803C0BCF1480F05D14FF0010C82
:100220000CFA00FCC2F810C0401C0828D1D314609E
:10023000B1F800C0BCF1FF0F34DD546800202EE09F
:1002400000F1080C4FF0010808FA0CF3B1F800C0F7
:100250000CEA03069E4221D183004FF00F0C0CFAEA
:1002600003F7BC4305FA03FC4CEA040491F803C00D
:10027000BCF1280F05D100F1080C08FA0CF8C2F8FF
:10028000148091F803C0BCF1480F07D100F1080CAD
:100290004FF0010808FA0CF8C2F81080401C08283A
:1002A000CED35460BDE8F081F8B504460D4616463D
:1002B0001F461148844204D10121042000F08CF82B
:1002C0000EE00E48844204D10121082000F084F899
:1002D00006E00B48844203D10121102000F07CF895
:1002E000ADF800508DF803608DF802706946204625
:1002F000FFF74FFFF8BD000000080140000C01406F
:100300000010014000BFFEE710B503231022510288
:100310000348FFF7C9FF01200249086010BD000033
:1003200000100140B401224200BFFEE77047000008
:1003300070B5002100230F22C47804B3154C246843
:1003400004F4E064C4F5E064210AC1F10403CA4086
:10035000447804FA03F184781440214309010E4CD7
:100360000678A155047804F01F050124AC400578F7
:100370006D11AD0005F1E025C5F8004109E00478F4
:1003800004F01F050124AC40044D0678761145F8B1
:10039000264070BD0CED00E000E400E080E100E0EC
:1003A00002490143024A1160704700000000FA054B
:1003B0000CED00E07047000029B1064AD269024303
:1003C000044BDA6104E0034AD2698243014BDA61EB
:1003D000704700000010024029B1064A92690243AA
:1003E000044B9A6104E0034A92698243014B9A618B
:1003F000704700000010024030B5002100220024A8
:1004000000232D4D6D6805F00C0121B1042905D0A4
:10041000082923D105E0294D056022E0274D05601C
:100420001FE0254D6D6805F47012234D6D6805F4CD
:100430008034022505EB92421CB9214D55430560DD
:100440000BE01D4D6D6805F400351DB11C4D554385
:10045000056002E0194D5543056002E0174D056047
:1004600000BF00BF144D6D6805F0F0010909154D7E
:100470006B5C0568DD4045600F4D6D6805F4E0611B
:10048000090A104D6B5C4568DD4085600A4D6D685A
:1004900005F46051C90A0B4D6B5C4568DD40C560D1
:1004A000054D6D6805F44041890B074D6B5CC568CF
:1004B000B5FBF3F5056130BD0010024000127A0073
:1004C00000093D001C0000202C00002021B1028802
:1004D00042F40052028004E002884DF6FF731A4095
:1004E0000280704721B1028842F04002028004E09D
:1004F00002884FF6BF731A40028070470246002000
:1005000013890B400BB1012000E000207047014629
:10051000888970478181704710B50022028802F4F3
:1005200041520B884C8823438C882343CC88234337
:100530000C8923434C8923438C892343CC8923434F
:100540001A430280838B4FF2FF74234083830B8A0C
:10055000038210BD70B586B005460C46164640486D
:10056000854213D1B4F5827F10D101218014FFF7A9
:1005700033FF03231822A0213A48FFF795FE0323F7
:10058000042240213748FFF78FFE41E0344885427E
:1005900011D184B901218014FFF71EFF0323042227
:1005A000A0213048FFF780FE0323182240212D4868
:1005B000FFF77AFE2CE02C48854214D1B4F5827FF7
:1005C00011D101210014FFF7F7FE032318224FF485
:1005D00020412648FFF768FE032304221103234825
:1005E000FFF762FE14E02048854211D184B9012151
:1005F0000014FFF7E1FE032304224FF420411B48BF
:10060000FFF752FE0323182229141848FFF74CFE67
:100610000020ADF80400ADF806404FF40060ADF8DE
:1006200008000020ADF80A000120ADF80C004002DF
:10063000ADF80E00ADF810600020ADF812000720F4
:10064000ADF8140001A92846FFF766FF01212846EE
:10065000FFF73CFF01212846FFF744FF06B070BDBD
:10066000003001400008014000380040000C01400B
:10067000704710B500F002F810BD00000CB5002066
:10068000019000903348006840F4803031490860A0
:1006900000BF3048006800F4003000900198401C12
:1006A0000190009818B90198B0F5A06FF1D12948D0
:1006B000006800F4003010B10120009001E000203B
:1006C00000900098012843D12348006840F01000B2
:1006D000214908600846006820F0030008600846C9
:1006E000006840F0020008601A48406819494860F4
:1006F0000846406848600846406840F480604860AA
:100700000846406820F47C1048600846406840F481
:10071000E81048600846006840F08070086000BF3C
:100720000C48006800F000700028F9D009484068C3
:1007300020F00300074948600846406840F0020086
:10074000486000BF0348406800F00C000828F9D159
:100750000CBD00000010024000200240024800686A
:10076000401C0149086070471800002010B513486C
:10077000006840F0010011490860084640681049CF
:1007800008400E494860084600680E4908400B4979
:1007900008600846006820F4802008600846406829
:1007A00020F4FE0048604FF41F008860FFF761FFEF
:1007B0004FF000600449086010BD000000100240C6
:1007C0000000FFF8FFFFF6FE08ED00E010B540F274
:1007D0002551064800F01AF830B10448001D008881
:1007E000C1B2034800F0CEF810BD0000003801404F
:1007F0000000002021B1828942F40052828104E08D
:1008000082894DF6FF731A408281704770B50246A7
:10081000002400230025002040F66A16B14200D1D2
:1008200000BFC1F3421501F01F03012606FA03F3CE
:10083000012D02D19689334006E0022D02D1168A9D
:10084000334001E0968A33400C12012606FA04F484
:100850001688344013B10CB1012000E0002070BDB7
:10086000F0B50346002400260025002040F66A1754
:10087000B94200D100BF1846C1F3421401F01F066F
:10088000012707FA06F5012C01D10C3004E0022CF7
:1008900001D1103000E014301AB107682F4307600F
:1008A00002E00768AF430760F0BD00002DE9F047A4
:1008B00086B005460E460024A24600BFA14600278A
:1008C000B08900B100BF2F462C8A4CF6FF7004405F
:1008D000F08804432C82AC894EF6F3100440B088B3
:1008E00031890843718908430443AC81AC8A4FF6CF
:1008F000FF400440B0890443AC8201A8FFF77CFDAF
:100900001F48874202D1DDF810A001E0DDF80CA0FD
:10091000A88900F4004040B10AEBCA0000EB0A10BD
:1009200031684900B0FBF1F807E00AEBCA0000EBC0
:100930000A1031688900B0FBF1F86420B8FBF0F0D0
:1009400004012009642101FB1089A88900F40040FA
:1009500040B1322000EBC900B0FBF1F000F007001D
:10096000044308E0322000EB09106421B0FBF1F0F1
:1009700000F00F0004432C8106B0BDE8F0870000B2
:1009800000380140427903799A4201D10022427134
:1009900043790268D1544279521C4271C279521C87
:1009A000C271704700BFFEE702E008C8121F08C10D
:1009B000002AFAD170477047002001E001C1121FE0
:1009C000002AFBD17047000070B54FF44070FFF76C
:1009D000E7FC144800684FF47A72B0FBF2F1B1F111
:1009E000807F00D31DE021F07F40401E4FF0E022C9
:1009F000506150170F22002807DA13071D0E0A4B0B
:100A000000F00F04241F1D5503E013071C0E074BB5
:100A10001C5400BF00204FF0E022906107201061BD
:100A200000BF70BD3800002018ED00E000E400E0D9
:100A3000FFF7CAFFFFF768FC4FF416520021114878
:100A400000F048F810224FF482710F48FFF782FD42
:100A5000102200210D48FFF77DFD11E0C8210A4852
:100A600000F028F8094800F017F80949088001212A
:100A7000064800F01FF8044800F00EF80549088009
:100A8000ECE7000000380140003001400038004031
:100A9000340000203600002010B5044600BF0121BC
:100AA0002046FFF72BFD0028F9D02046FFF72FFD49
:100AB000C0B210BD70B504460D4600BF02212046ED
:100AC000FFF71CFD0028F9D029462046FFF722FD3C
:100AD00070BD0000F0B585B004460D4617460121F3
:100AE0000846FFF779FC3848844205D10121880384
:100AF000FFF772FC252610E03448844205D101211D
:100B00004804FFF759FC262607E03148844204D107
:100B100001218804FFF750FC27266DB90323182212
:100B20004FF400712B48FFF7BFFB0323042211028F
:100B30002848FFF7B9FB1CE0012D0CD10323182234
:100B400004212448FFF7B0FB032304220821214895
:100B5000FFF7AAFB0DE0022D0BD103231822690237
:100B60001D48FFF7A1FB0323042251021A48FFF797
:100B70009BFB01970020ADF80800ADF80A00ADF826
:100B80000C00ADF810000C20ADF80E008DF80060E0
:100B900000208DF801008DF8020001208DF803007F
:100BA0006846FFF7C5FB01A92046FFF77FFE01223B
:100BB00040F225512046FFF753FE01212046FFF762
:100BC00019FE05B0F0BD00000038014000440040AF
:100BD0000048004000080140000C0140FC0B0008E8
:100BE000000000204C000000A8090008480C000884
:100BF0004C0000202C050000B80900084C00002023
:100C000064000000B0000020640000001401002017
:100C10006400000000000000000000000102030466
:100C20000102030406070809020406080000000088
:100C30000000000000A24A040000000000000000C4
:080C4000010203040607080984
:0400000508000131BD
:00000001FF
