:020000040800F2
:1000000048070020CD0100087904000845040008D5
:100010007504000875020008FB06000800000000D7
:100020000000000000000000000000009D04000827
:1000300079020008000000007B040008B1050008F8
:10004000E7010008E7010008E7010008E7010008F0
:10005000E7010008E7010008E7010008E7010008E0
:10006000E7010008E7010008E7010008E7010008D0
:10007000E7010008E7010008E7010008E7010008C0
:10008000E7010008E7010008E7010008E7010008B0
:10009000E7010008E7010008E7010008E7010008A0
:1000A000E7010008E7010008E7010008E701000890
:1000B000E7010008E7010008E7010008E701000880
:1000C000E7010008E7010008E7010008E701000870
:1000D000E701000815060008E7010008E70100082D
:1000E000E7010008E7010008E7010008E701000850
:1000F000E7010008E7010008E7010008E701000840
:10010000E7010008E7010008E7010008E70100082F
:10011000E7010008E7010008E7010008E70100081F
:10012000E7010008E7010008E7010008E70100080F
:1001300000F002F800F03AF80AA090E8000C8244BF
:100140008344AAF10107DA4501D100F02FF8AFF29C
:10015000090EBAE80F0013F0010F18BFFB1A43F0A5
:100160000103184784060000A4060000103A24BFCB
:1001700078C878C1FAD8520724BF30C830C144BF0C
:1001800004680C607047000000230024002500264E
:10019000103A28BF78C1FBD8520728BF30C148BFEA
:1001A0000B6070471FB51FBD10B510BD00F033F8D0
:1001B0001146FFF7F7FF00F0EDFA00F051F803B435
:1001C000FFF7F2FF03BC00F09AFA000009488047ED
:1001D00009480047FEE7FEE7FEE7FEE7FEE7FEE729
:1001E000FEE7FEE7FEE7FEE704480549054A064B41
:1001F00070470000B50500083101000848010020E3
:10020000480700204803002048030020704770473B
:10021000704770477047754600F028F8AE460500F5
:100220006946534620F00700854618B020B5FFF711
:10023000DBFFBDE820404FF000064FF000074FF015
:1002400000084FF0000B21F00701AC46ACE8C009F4
:10025000ACE8C009ACE8C009ACE8C0098D467047FD
:100260000446AFF300802046FFF7A9FF004870471F
:10027000E800002000BFFEE770472DE9F04102468C
:1002800000250026002000230024002791F803C049
:100290000CF00F0591F803C00CF0100CBCF1000F2E
:1002A00003D091F802C04CEA050591F800C0BCF1FA
:1002B000000F31D0146800202BE04FF0010C0CFA35
:1002C00000F3B1F800C00CEA03069E4220D183007F
:1002D0004FF00F0C0CFA03F7BC4305FA03FC4CEA91
:1002E000040491F803C0BCF1280F06D14FF0010CB3
:1002F0000CFA00FCC2F814C00AE091F803C0BCF18B
:10030000480F05D14FF0010C0CFA00FCC2F810C0E8
:10031000401C0828D1D31460B1F800C0BCF1FF0F15
:1003200034DD546800202EE000F1080C4FF0010885
:1003300008FA0CF3B1F800C00CEA03069E4221D182
:1003400083004FF00F0C0CFA03F7BC4305FA03FCD3
:100350004CEA040491F803C0BCF1280F05D100F168
:10036000080C08FA0CF8C2F8148091F803C0BCF12C
:10037000480F07D100F1080C4FF0010808FA0CF8FB
:10038000C2F81080401C0828CED35460BDE8F0812C
:1003900041617047F8B504460D4616461F46214890
:1003A000844204D10121042000F068F82EE01E48A8
:1003B000844204D10121082000F060F826E01B48A7
:1003C000844204D10121102000F058F81EE01848A2
:1003D000844204D10121202000F050F816E0154895
:1003E000844204D10121402000F048F80EE0124878
:1003F000844204D10121802000F040F806E00F483B
:10040000844203D10121801500F038F8ADF8005086
:100410008DF803608DF8027069462046FFF72DFFC6
:10042000F8BD000000080140000C01400010014030
:100430000014014000180140001C01400020014050
:100440000161704700BFFEE710B503231022602151
:100450000648FFF79FFF20210448FFF799FF032379
:10046000482220210248FFF795FF10BD000C0140F3
:100470000018014000BFFEE77047704729B1064AE7
:1004800092690243044B9A6104E0034A92698243F1
:10049000014B9A617047000000100240704710B590
:1004A00000F002F810BD00000CB500200190009093
:1004B0003348006840F480303149086000BF30485C
:1004C000006800F4003000900198401C01900098F2
:1004D00018B90198B0F5A06FF1D12948006800F46F
:1004E000003010B10120009001E000200090009841
:1004F000012843D12348006840F0100021490860DA
:100500000846006820F0030008600846006840F0D4
:10051000020008601A484068194948600846406867
:1005200048600846406840F480604860084640687B
:1005300020F47C1048600846406840F4E8104860A9
:100540000846006840F08070086000BF0C480068F2
:1005500000F000700028F9D00948406820F003003E
:10056000074948600846406840F00200486000BF04
:100570000348406800F00C000828F9D10CBD0000C9
:100580000010024000200240042808D14FF0E02172
:10059000096941F004014FF0E022116107E04FF0DA
:1005A000E021096921F004014FF0E0221161704758
:1005B0007047000010B51348006840F00100114971
:1005C000086008464068104908400E4948600846DF
:1005D00000680E4908400B4908600846006820F48E
:1005E000802008600846406820F4FE0048604FF410
:1005F0001F008860FFF753FF4FF000600449086058
:1006000010BD0000001002400000FFF8FFFFF6FEE2
:1006100008ED00E010B540F225511D4800F03EF80D
:1006200010B31B4800F064F8C4B21A48008800F404
:100630000040C8B91748008800F4804060B10A2C17
:1006400003D000201349088020E01248008840F4BD
:1006500000401049088019E00D2C06D10D48008893
:1006600040F480400B49088010E00A480088C0F33D
:100670000D0009490C5407480088401C05490880B2
:1006800008460088C72801DD0020088010BD000052
:1006900000380140080000202000002070B502460C
:1006A000002400230025002040F66A16B14200D144
:1006B00000BFC1F3421501F01F03012606FA03F340
:1006C000012D02D19689334006E0022D02D1168A0F
:1006D000334001E0968A33400C12012606FA04F4F6
:1006E0001688344013B10CB1012000E0002070BD29
:1006F00001468888C0F30800704700BFFEE7014646
:1007000000BF704710B56FF00400FFF73DFF0A48C7
:1007100000680A49B0FBF1F0094908700846007802
:1007200000EB4001C1EBC0104FF6FF7101EAC000C1
:100730000449088010BD00000C00002000127A005F
:1007400000000020020000200146114A12884A439E
:100750004FF0E0235A6100229A611A46126942F072
:1007600001021A6100BF4FF0E022106900F001029F
:100770001AB100F48032002AF5D04FF0E02212695D
:1007800022F001024FF0E0231A6100229A617047C3
:1007900002000020FFF758FEFFF7B4FF1AE0002028
:1007A0000D49086020210D48FFF74AFE4FF496706E
:1007B000FFF7CAFF01200A49C1F894012021094826
:1007C000FFF73EFE20210548FFF7E2FD4FF496704B
:1007D000FFF7BAFFE3E700009481214200180140CF
:1007E00000802142000C01400808000800000020A1
:1007F000200000006C0100082808000820000020EC
:100800002807000088010008000000000000000028
:100810000000000000A24A040000000000000000E8
:080820000102030406070809A8
:0400000508000131BD
:00000001FF
