:020000040800F2
:1000000080060020CD010008890400086104000872
:10001000850400088702000825060008000000008B
:10002000000000000000000000000000AD04000817
:100030008B020008000000008B040008C1050008C6
:10004000E7010008E7010008E7010008E7010008F0
:10005000E7010008E7010008E7010008E7010008E0
:10006000E7010008E7010008E7010008E7010008D0
:10007000E7010008E7010008E7010008E7010008C0
:10008000E7010008E7010008E7010008E7010008B0
:10009000E7010008E7010008E7010008E7010008A0
:1000A000E7010008E7010008E7010008E701000890
:1000B000E7010008E7010008E7010008E701000880
:1000C000E7010008E7010008E7010008E701000870
:1000D000E7010008E7010008E7010008E701000860
:1000E000E7010008E7010008E7010008E701000850
:1000F000E7010008E7010008E7010008E701000840
:10010000E7010008E7010008E7010008E70100082F
:10011000E7010008E7010008E7010008E70100081F
:10012000E7010008E7010008E7010008E70100080F
:1001300000F002F800F03AF80AA090E8000C8244BF
:100140008344AAF10107DA4501D100F02FF8AFF29C
:10015000090EBAE80F0013F0010F18BFFB1A43F0A5
:10016000010318472406000044060000103A24BF8B
:1001700078C878C1FAD8520724BF30C830C144BF0C
:1001800004680C607047000000230024002500264E
:10019000103A28BF78C1FBD8520728BF30C148BFEA
:1001A0000B6070471FB51FBD10B510BD00F031F8D2
:1001B0001146FFF7F7FF00F07FFA00F04FF803B4A5
:1001C000FFF7F2FF03BC00F057F800000948804732
:1001D00009480047FEE7FEE7FEE7FEE7FEE7FEE729
:1001E000FEE7FEE7FEE7FEE704480549054A064B41
:1001F00070470000C505000831010008800000209C
:100200008006002080020020800200207047704796
:100210007047754600F02CF8AE4605006946534617
:1002200020F00700854618B020B5FFF7DDFFBDE8D8
:1002300020404FF000064FF000074FF000084FF04D
:10024000000B21F00701AC46ACE8C009ACE8C009DE
:10025000ACE8C009ACE8C0098D46704710B504464B
:10026000AFF300802046BDE81040FFF7A8BF0000B4
:10027000004870472000002001491820ABBEFEE76F
:1002800026000200704700BFFEE770472DE9F041ED
:10029000024600250026002000230024002791F8B4
:1002A00003C00CF00F0591F803C00CF0100CBCF16A
:1002B000000F03D091F802C04CEA050591F800C088
:1002C000BCF1000F31D0146800202BE04FF0010C7E
:1002D0000CFA00F3B1F800C00CEA03069E4220D1EC
:1002E00083004FF00F0C0CFA03F7BC4305FA03FC34
:1002F0004CEA040491F803C0BCF1280F06D14FF07A
:10030000010C0CFA00FCC2F814C00AE091F803C01A
:10031000BCF1480F05D14FF0010C0CFA00FCC2F8FB
:1003200010C0401C0828D1D31460B1F800C0BCF143
:10033000FF0F34DD546800202EE000F1080C4FF070
:10034000010808FA0CF3B1F800C00CEA03069E425B
:1003500021D183004FF00F0C0CFA03F7BC4305FAD0
:1003600003FC4CEA040491F803C0BCF1280F05D14A
:1003700000F1080C08FA0CF8C2F8148091F803C0D8
:10038000BCF1480F07D100F1080C4FF0010808FA42
:100390000CF8C2F81080401C0828CED35460BDE889
:1003A000F0810000F8B504460D4616461F46114878
:1003B000844204D10121042000F068F80EE00E48C8
:1003C000844204D10121082000F060F806E00B48C7
:1003D000844203D10121102000F058F8ADF80050FC
:1003E0008DF803608DF8027069462046FFF74EFFD6
:1003F000F8BD000000080140000C01400010014061
:100400002DE9F04104460D4616461F461048844229
:1004100004D10121042000F039F80EE00D48844297
:1004200004D10121082000F031F806E00A48844296
:1004300003D10121102000F029F8084805808670BA
:10044000C77001462046FFF721FFBDE8F08100009C
:1004500000080140000C0140001001400400002091
:1004600000BFFEE710B50323102251020348FFF737
:1004700099FF01200249086010BD000000100140F2
:10048000B401224200BFFEE77047704729B1064A17
:1004900092690243044B9A6104E0034A92698243E1
:1004A000014B9A617047000000100240704710B580
:1004B00000F002F810BD00000CB500200190009083
:1004C0003348006840F480303149086000BF30484C
:1004D000006800F4003000900198401C01900098E2
:1004E00018B90198B0F5A06FF1D12948006800F45F
:1004F000003010B10120009001E000200090009831
:10050000012843D12348006840F0100021490860C9
:100510000846006820F0030008600846006840F0C4
:10052000020008601A484068194948600846406857
:1005300048600846406840F480604860084640686B
:1005400020F47C1048600846406840F4E810486099
:100550000846006840F08070086000BF0C480068E2
:1005600000F000700028F9D00948406820F003002E
:10057000074948600846406840F00200486000BFF4
:100580000348406800F00C000828F9D10CBD0000B9
:100590000010024000200240042808D14FF0E02162
:1005A000096941F004014FF0E022116107E04FF0CA
:1005B000E021096921F004014FF0E0221161704748
:1005C0007047000010B51348006840F00100114961
:1005D000086008464068104908400E4948600846CF
:1005E00000680E4908400B4908600846006820F47E
:1005F000802008600846406820F4FE0048604FF400
:100600001F008860FFF753FF4FF000600449086047
:1006100010BD0000001002400000FFF8FFFFF6FED2
:1006200008ED00E000BFFEE710B56FF00400FFF733
:10063000B3FF0A4800680A49B0FBF1F009490870A5
:100640000846007800EB4001C1EBC0104FF6FF7187
:1006500001EAC0000449088010BD00000C00002021
:1006600000127A0000000020020000200146114A1A
:1006700012884A434FF0E0235A6100229A611A46D9
:10068000126942F001021A6100BF4FF0E0221069C6
:1006900000F001021AB100F48032002AF5D04FF0C8
:1006A000E022126922F001024FF0E0231A610022D9
:1006B0009A61704702000020FFF7D4FEFFF7B4FFF5
:1006C000102303220E212048FFF79AFE482303221D
:1006D00010211D48FFF794FE00201C4908601C49AA
:1006E000C1F8880119490831086000BF2BE017489C
:1006F00074380068D8B90520FFF7B8FF134874387C
:10070000006888B901201149091D086041F288304C
:1007100000F020F800BF0D48743800680028FAD0B7
:1007200000200A49091D08600520FFF79FFF0748C0
:10073000006808B9012000E00020044908604FF477
:10074000FA70FFF793FFD2E70008014084012142CD
:100750000000214270B50446002510E009480068F9
:1007600008B9012000E00020064908604FF4FA7043
:10077000FFF77CFF05F5FA75A54200D900E0EDE72B
:1007800000BF70BD84012142A807000800000020BE
:10079000200000006C010008C807000820000020AD
:1007A0006006000088010008000000000000000052
:1007B0000003050600A24A0400000000000000003B
:0807C000010203040607080909
:04000005080001CD21
:00000001FF
